:0D155900C0CAD2EBB5E7D7D3BFC6BCBC00FB
:100F42001210A5120CF97F007EFF1214CB750E0150
:100F5200750F407510F8751100E4FBFA7DF0FCFF87
:100F6200FE1214267F007EFF1214CB7BFF7A1579C6
:100F720059E4F50FF510F5117512F8FDFCFFFE129C
:100F820013467BFF7A15795974FFF50FF510751129
:100F9200F87512007D207C00E4FFFE1213467BFFF1
:100FA2007A157959750F237510347511007512452C
:100FB2007D407C00E4FFFE1213467BFF7A157959CF
:100FC200750F0575106075110A7512807D607C00C1
:100FD200E4FFFE1213467BFF7A157959E4F50FF50B
:100FE2001075110F7512807D80FCFFFE1213467B77
:100FF200FF7A157959E4F50FF51075110F75128006
:101002007DA0FCFFFE1213467BFF7A157959E4F5A9
:101012000FF51075110F7512807DC0FCFFFE1213C3
:10102200467BFF7A157959E4F50FF51075110F75A6
:1010320012807DE0FCFFFE1213467BFF7A15795980
:10104200E4F50FF51075110F751280FD7C01FFFE9E
:101052001213467BFF7A157959E4F50FF5107511D5
:101062000F7512807D207C01FFFE1213467BFF7AF2
:10107200157959E4F50FF51075110F7512807D4041
:101082007C01FFFE1213467BFF7A157959E4F50FB6
:10109200F51075110F7512807D607C01FFFE121331
:0310A2004680FE87
:1000030000000000000000000000000000000000ED
:1000130000000000000000000000000000000000DD
:1000230000000000000000000000000000000000CD
:1000330000000000000000000000000000000000BD
:10021300000000101010101010001010000000005B
:10022300000000242424000000000000000000005F
:1002330000000024247E2424247E242400000000C3
:10024300000000107C90907C12127C1000000000D3
:100253000000000062640810204C8C0000000000C5
:1002630000000000182420508A844A300000000057
:10027300000000101020000000000000000000003B
:10028300000008102020202020202010080000005B
:1002930000002010080808080808081020000000C3
:1002A3000000000000105438385410000000000013
:1002B300000000000010107C10100000000000007F
:1002C30000000000000000000000101020000000EB
:1002D300000000000000007C00000000000000009F
:1002E30000000000000000000000001000000000FB
:1002F300000000000002040810204000000000007D
:100303000000003844444C54644444380000000066
:100313000000001030101010101010380000000002
:1003230000000038440404081020407C0000000052
:100333000000007C04081038040404780000000066
:1003430000000008182848487C080808000000003E
:100353000000007C40404078040404780000000062
:100363000000003C40404078444444380000000012
:100373000000007C0404081020202020000000005E
:10038300000000384444443844444438000000002A
:10039300000000384444443C0404043800000000D6
:1003A300000000000000001000001000000000002A
:1003B30000000000000000001000101020000000EA
:1003C30000000000000408102010080400000000D2
:1003D300000000000000007C007C00000000000022
:1003E3000000000000201008040810200000000096
:1003F30000003844440408101000101000000000EE
:10040300000000000038445C545C403C00000000E5
:10041300000018244242427E424242420000000051
:1004230000007C4242427C424242427C0000000087
:1004330000003C42404040404040423C000000003D
:1004430000007C42424242424242427C00000000A1
:1004530000007E40404078404040407E0000000065
:1004630000007E4040407840404040400000000093
:1004730000003C4240405E424242423C00000000D9
:100483000000424242427E42424242420000000099
:100493000000381010101010101010380000000069
:1004A30000001C080808080808084830000000007D
:1004B300000042444850606050484442000000003D
:1004C30000004040404040404040407E000000006B
:1004D30000008282C6C6AAAA92928282000000000D
:1004E300000042626252524A4A46464200000000FD
:1004F30000003C42424242424242423C0000000071
:1005030000007C424242427C4040404000000000E8
:1005130000003C424242424242424A3C0E0000003A
:1005230000007C424242427C5048444200000000AA
:1005330000003C4240403C020202423C00000000FA
:1005430000007C101010101010101010000000009C
:1005530000004242424242424242423C000000000A
:1005630000004444444428282810101000000000D0
:1005730000008282828254545428282800000000FC
:1005830000004242241818182424424200000000AC
:1005930000004444444428281010101000000000B8
:1005A30000007E02020408102040407E000000008C
:1005B30000003820202020202020203800000000C8
:1005C30000000000000040201008040200000000AA
:1005D30000001C04040404040404041C00000000C0
:1005E300000000001028440000000000000000008C
:1005F300000000000000000000000000FF000000F9
:1006030000000010100800000000000000000000BF
:10061300000000000078043C4444443A0000000019
:1006230000004040405C62424242625C00000000C5
:1006330000000000003C42404040423C00000000FB
:1006430000000202023A46424242463A00000000DB
:1006530000000000003C42427E40423C000000009B
:1006630000000E1010103C101010101000000000BD
:1006730000000000003E424242423E02023C0000B3
:1006830000004040405C624242424242000000009F
:100693000000000800080808080808080000000017
:1006A30000000004000404040404040444380000AB
:1006B300000040404042444850684442000000006B
:1006C3000000101010101010101010100000000087
:1006D3000000000000EC92929292929200000000BF
:1006E30000000000007C42424242424200000000FF
:1006F30000000000003C42424242423C0000000035
:1007030000000000005C62424242625C4040000024
:1007130000000000003A46424242463A020200000C
:1007230000000000005C62404040404000000000C8
:1007330000000000003C42403C02423C000000003C
:1007430000000020207820202020221C0000000030
:1007530000000000004242424242423E00000000CC
:100763000000000000424242424224180000000000
:1007730000000000008282829292AA4400000000DE
:1007830000000000004242241824424200000000FE
:10079300000000000042424242423E02023C00008E
:1007A30000000000007E02041820407E00000000CC
:1007B3000000081010102040201010100800000046
:1007C3000010101010101010101010101010100046
:1007D3000000201010100804081010102000000062
:1007E3000000000000002254880000000000000008
:1007F30000000000000000000000000000000000F6
:10080300C0CA00000000000000000001C00000009A
:10081300E0603000F0707818E67FF81FFF78701EF4
:100823000E78701E0E78701E0E78701E0E78701F74
:10083300FE7FF01E0E78701E0E78701E0E78701EEE
:100843000E70701FFE70701E0E70701E007FF01E03
:10085300C070701E7070701E3C70701E3EF0701E73
:10086300FEE0701FCFE0701F01C0701E0380700C8C
:10087300070FF0001C01F0003800C000000000D298
:10088300EB000000000000000000000000000E006C
:1008930003C0073FFFE00787078007830700038341
:1008A3008F000001DE000000FC00030078007F8061
:1008B300FE003783CFC00707F3FC071C3CF007F0AB
:1008C300380007C039E0070FFFF0070038000700C2
:1008D3003800073038300760387807FFFFFC07C05F
:1008E3003800078038000780380003003800000014
:1008F3007800000078000000700000000000B5E7F9
:100903000000000000000000000007000000078056
:10091300000007000000070000000700000C0701AB
:10092300C00FFFFFE00E0703C00E0703C00E07034F
:10093300C00E0703C00E0703C00FFFFFC00E07035F
:10094300C00E0703C00E0703C00E0703C00E070344
:10095300C00FFFFFC00E0703C00E070030000700E3
:100963003000070030000700380007003800078018
:100973007C0003FFF80000000000000000D7D30054
:10098300000000000000000000000080000001C023
:1009930007FFFFE0000007E000000F0000001C005D
:1009A300000038000003E0000003C0000003E00083
:1009B30000038030000380787FFFFFFC0003800C7E
:1009C3000003800000038000000380000003800018
:1009D3000003800000038000000380000003800008
:1009E300000380000003800000038000007F80007C
:1009F300000F80000006000000000000BFC60000DA
:100A030000000000000000001C03C0003C03E003E2
:100A1300FE03C03FC003C001C0E3C001C073C001F7
:100A2300C07BC001C03BC001CE33C07FFF03C00108
:100A3300C303C001C1C3C003C0E3C003F073C00755
:100A4300FC7BC007DE33F80FCE03FC0FCC07E01DA1
:100A5300C0FFC039CF83C031C003C061C003C041F0
:100A6300C003C001C003C001C003C001E003C00153
:100A7300E003C001C003C000000000BCBC000000D4
:100A830000000000000003C01C0003C01E00038020
:100A93001C0003801C0003801C0003981C3003BC53
:100AA3001C787FEFFFCC03801C0003801C000380B5
:100AB3001C00038C1CC003BFFFE003E180F00F8127
:100AC30081E07F81C1C07B80C3C03380E38003802A
:100AD30067800380770003803E0003803E0003802D
:100AE3003E000380FF000381E7C03F8783F80F9E2A
:100AF30000FC0778003000000000D3D000000000A5
:100B03000000000000000700000007C000000F0005
:100B130000000F0070001E00F87FFFFF8C001C0018
:100B23000000380000007803000070078000FFFF1A
:100B33008001F0070003F0070003F0070007F00748
:100B4300001CFFFF0038F0070070F0070060F0079B
:100B53000000FFFF0000F0070000F0070000F007AF
:100B63000000F0070000F0070000F07F0000F01F16
:100B73000000E00E0000000000CFDE0000000000D7
:100B83000000000000000000187601C01FFFFFE016
:100B93001CF701C01CE701C01CE701C01CC701C052
:100BA3001DC7FFC01D8701C01D8701C01D8701C070
:100BB3001CC701C01CE701C01C67FFC01C77706025
:100BC3001C7770F01C7731F81C773BC01C773F0013
:100BD3001FF71C001DE71E001DC70E001C071F800A
:100BE3001C0773C01C07C1F81C0780FC1C0700709E
:100BF3001800000000000000B9AB00000000000076
:100C03000000000000700000187000003E7000003B
:100C13003C70000038300000783800007038000065
:100C2300E01C0001E01E0001C00F000380078007E5
:100C33000383C00F07C3E00E0781F8180F00FC30D1
:100C43000E0020001E0000001C0000003870000091
:100C530070380000701C0000E00E0001C00F00039C
:100C630080078007FFFF8007E003C0030003C00085
:100C730000000000000000CBBE00000000000000E8
:100C8300000000000000000001C00FFFFFE00000B3
:100C930001E0000001E0000001E0000019E00000B5
:100CA3003DE03FFFFFE0000001E0000001E007003E
:100CB300C1E007FFE1E00381E1E00381E1E00381BB
:100CC300E1E00381E1E00381E1E00381E1E003FF8F
:100CD300E1E00381E1E00781C1E0060001E00000FB
:100CE30001E0000001E000003FC0000007C0000079
:060CF30003800000000078
:0414CB008E088F09EF
:1014CF001213D1E4F50AF50BE4F50CF50DAF09AEE7
:1014DF000812153A050DE50D7002050CC394F0E5E1
:1014EF000C940040E8050BE50B7002050AC39490BD
:0614FF00E50A940140D251
:0115050022C3
:0612B7008B218D828C8367
:1012BD00EF2407FDE43EFCAB82AA83E582240FF503
:0E12CD0032E43583F5311213DFE4F526F52700
:1012DB00AF21EF3395E0FEEFC4F8540FC868FFEE73
:1012EB00C454F048FEE5272FFFE5263EFE74032F7E
:1012FB00F58274003EF583E493F52AE4F528F5298D
:10130B00E52A30E706AF23AE228004AF25AE2412C8
:10131B00153AE52A25E0F52A0529E5297002052865
:09132B00C39408E528940040D7A2
:101334000527E52770020526C39410E5269400408E
:011344009612
:011345002285
:0F154A00851922851A23851B24851C250212B7BB
:0A11C2008B188A19891A8D828C831C
:1011CC00EF241FFDE43EFCAB82AA83E582241EF5CE
:1011DC0032E43583F5311213DFE4F523F524AB1833
:1011EC00AA19A91A121479FF90080375F07FE52447
:1011FC001214BFE52375F07FA42583F583E4936F68
:10120C0060030212A2900001121492FF9008047560
:10121C00F07FE5241214BFE52375F07FA42583F538
:0A122C0083E4936F7070F51FF52046
:1012360090080675F07FE5241214BFE52375F07F4C
:10124600A42583F583E5822520F582E583351FF500
:1012560083E493752500F526E4F521F522E526308D
:10126600E706AF1CAE1B8004AF1EAE1D12153AE595
:101276002625E0F526E52533F5250522E52270022B
:0B1286000521C39408E521940040D22C
:101291000520E5207002051FC3947CE51F940040E2
:1012A100940524E52470020523C39440E5239400AA
:0512B10050030211EAE8
:0112B6002215
:0E1346008E088F098C0A8D0B8B0C8A0D890E78
:10135400E4F513AB0CAA0DA90E121479606EC394B4
:1013640080E51375F008502FA42509FFE50835F032
:10137400FE121479FB850F1985101A85111B85122D
:101384001CAD0BAC0A12154A7401250EF50EE4359A
:101394000DF50D051380BCA42509FFE50835F0FE05
:1013A400AB0CAA0DA90E850F1B85101C85111D857C
:1013B400121EAD0BAC0A1211C27402250EF50EE416
:0C13C400350DF50D74042513F51380871A
:0113D00022FA
:0C1426008E088F098C0A8D0B8A0C8B0D30
:10143200850E31850F321213DF850C12850D13D301
:10144200E513950FE512950E502C850814850915A4
:10145200D3E515950BE514950A5011AF11AE101294
:10146200153A0515E51570E8051480E40513E51332
:0614720070CD051280C9D7
:011478002251
:100CF9007508321213D1E4F50BF50CE4F509F50A80
:100D0900C3E50A95087480F865099850117F007E3B
:100D1900F812153A050AE50A70E6050980E2050C9C
:100D2900E50C7002050BC394F0E50B6480948040D8
:100D3900CAE4F50BF50C75090085080AE50875F094
:100D490002A4FFC3E50A9FE5F06480F8E509648021
:100D59009850117FE07E0712153A050AE50A70DC02
:100D6900050980D8050CE50C7002050BC394F0E564
:100D79000B6480948040BFE4F50BF50CE50875F031
:100D890002A485F009F50AE50875F003A4FFC3E597
:100D99000A9FE5F06480F8E50964809850117F1F87
:100DA9007E0012153A050AE50A70DC050980D805A6
:100DB9000CE50C7002050BC394F0E50B648094807C
:100DC90040BAE4F50BF50CE50875F003A485F009C4
:100DD900F50AE50875F004A4FFC3E50A9FE5F06488
:100DE90080F8E50964809850117FE07EFF12153A7A
:100DF900050AE50A70DC050980D8050CE50C7002C6
:100E0900050BC394F0E50B6480948040BAE4F50BBC
:100E1900F50CE50875F004A485F009F50AE50875EF
:100E2900F005A4FFC3E50A9FE5F06480F8E50964CD
:100E3900809850117F1F7EF812153A050AE50A704D
:100E4900DC050980D8050CE50C7002050BC394F08C
:100E5900E50B6480948040BAE4F50BF50CE5087560
:100E6900F005A485F009F50AE50875F006A4FFC3A5
:100E7900E50A9FE5F06480F8E50964809850117FE0
:100E8900FF7E0712153A050AE50A70DC050980D8C4
:100E9900050CE50C7002050BC394F0E50B64809416
:100EA9008040BAE4F50BF50CE50875F006A485F069
:100EB90009F50AE50875F007A4FFC3E50A9FE5F0FF
:100EC9006480F8E509648098501174FFFFFE1215DB
:100ED9003A050AE50A70DC050980D8050CE50C70AD
:100EE90002050BC394F0E50B6480948040BAE4F5E5
:100EF9000BF50CE50875F007A485F009F50AE50876
:100F090075F008A4FFC3E50A9FE5F06480F8E509D8
:100F19006480985010E4FFFE12153A050AE50A703C
:100F2900DD050980D9050CE50C7002050BC394F0A9
:080F3900E50B6480948040BBCD
:010F4100228D
:04153A00AD07AC0647
:0C153E00AF048D2B12152DAF2B02152DC4
:0D156600C2A2C2A48F80C2A5D2A5D2A2222B
:07152600121566FF12152DDE
:0D152D00C2A2D2A48F80C2A5D2A5D2A22254
:08157F00121566AF05021566A6
:0815870012152DAF0502152D10
:10150600E4FDFCC3ED9FEC9E5015E4FBFA0BBB001B
:0F151600010ABA01F8BB04F50DBD00010C80E419
:0115250022A3
:1010A500D2A17F017E00121506C2A17F0A12150684
:1010B500D2A17F321215067F111215667F641215B3
:1010C500067FD1121566E4FF12152D7F7112152DBD
:1010D5007F1912152D7FD01215667F0712152D7FEA
:1010E5000112152D7F0812152D7F361215667F48C2
:1010F50012152D7F3A1215667F0512152D7FC11227
:1011050015667F1012152D12152D7F0212152D1241
:10111500152D7FC0121566FF12152D7F3512152D61
:101125001215290F12152D0F12152D7FC5121566D3
:101135007F0412152D7FD21215667F0112152D7FA2
:101145004412152D7FC81215667F0412152D7F6771
:1011550012152D7F3512152D7F0412152D7F0812BE
:10116500152D7F0612152D7F2412152D7F011215C1
:101175002D7F3712152D7F4012152D7F0312152D4A
:101185007F1012152D7F0812152D7F8012152DFF4A
:1011950012152D7F2A12152612152D7FF012152DE9
:1011A5007F2B1215260F12152D7F9012152D7F29D5
:0D11B5001215667F2C1215667F6402150668
:0E13D10075310175328FE4FBFA7DEFFCFFFEF3
:1013DF008E2B8F2C8D828C837D2A7C00E4FFFE1256
:1013EF00157FE52BFFAD2CFC121587E583FFAD8232
:1013FF00FC1215877D2B7C00E4FF12157FEAFFADF1
:10140F0003FC121587E531FFAD32FC1215877D2CD9
:07141F007C00E4FF02157FD1
:0300000002157373
:0C157300787FE4F6D8FD758132020F424B
:10147900BB010689828A83E0225002E722BBFE0271
:09148900E32289828A83E49322A4
:10149200BB010CE58229F582E5833AF583E022500F
:1014A20006E92582F8E622BBFE06E92582F8E22259
:0D14B200E58229F582E5833AF583E4932273
:0C14BF00A42582F582E5F03583F5832238
:00000001FF
