:0F01B60057656C636F6D6520546F204C63640058
:10013A0078087C007D007BFF7A0179B67E007F0F0C
:10014A001200D312015E7B007A007908E4FDFF12E7
:04015A00011280FE10
:100172007580FFC2A6D2A5D2A7AF80C2A7EF20E7A3
:01018200F686
:010183002259
:10019600AE07120172C2A6C2A58E80D2A7C2A7223E
:1001A600AE07120172D2A6C2A58E80D2A7C2A7221E
:10018400ED7004AC078004EF2440FCEC4480FF02D3
:020194000196D2
:100112008B178A188919120184AB17AA18A9191208
:1001220000F960130519E5197002051814F9120097
:08013200F9FF1201A680E22290
:10015E007F381201967F0C1201967F061201967F50
:04016E0001020196F3
:030000000201C535
:0C01C500787FE4F6D8FD75811902013A3C
:10000300E709F608DFFA8046E709F208DFFA803EDF
:1000130088828C83E709F0A3DFFA8032E309F608CC
:10002300DFFA8078E309F208DFFA807088828C8334
:10003300E309F0A3DFFA806489828A83E0A3F608E8
:10004300DFFA805889828A83E0A3F208DFFA804CC2
:1000530080D280FA80C680D4806980F28033801099
:1000630080A680EA809A80A880DA80E280CA803302
:1000730089828A83ECFAE493A3C8C582C8CCC5837A
:10008300CCF0A3C8C582C8CCC583CCDFE9DEE7804A
:100093000D89828A83E493A3F608DFF9ECFAA9F0C9
:1000A300EDFB2289828A83ECFAE0A3C8C582C8CC1F
:1000B300C583CCF0A3C8C582C8CCC583CCDFEADE38
:1000C300E880DB89828A83E493A3F208DFF980CC9A
:1000D30088F0EF60010E4E60C388F0ED2402B40493
:1000E3000050B9F582EB2402B4040050AF2323453A
:0600F3008223900053730C
:1000F900BB010689828A83E0225002E722BBFE0205
:09010900E32289828A83E4932237
:00000001FF
