:10A71F007777772E646F666C79652E6E6574004956
:10A72F00204C4F5645204D59204A4F422000C9CF4B
:10A73F00BAA3C0CAD2EBB5E7D7D3BFC6BCBCD3D080
:10A74F00CFDEB9ABCBBE00D7A8D2B5BCBCCAF5D64D
:10A75F00A7B3D6C2DBCCB300D7A8D2B5BFAAB7A2D6
:10A76F00B0E5B9A4BFD8B0E5003132333435363750
:10A77F00383930006162636465666768696A6B6C5B
:10A78F006D6E6F707169737475767778797A006012
:10A79F002C2E2F3C3E273B3A5B5D7B7D7C3F29284F
:09A7AF002D3D2B2A265E25240015
:10A5280012A40BE4FFFE12AA667FFF7E0012AA6641
:10A538007F007EFF12AA6612A1B47FFF7E0012AAD6
:10A54800667BFF7AA7791FE4F50FF51074FFF51104
:10A55800F5127D287C007F287E0012A8507BFF7AA8
:10A56800A7792EE4F50FF5107511F8F5127D3CFC6E
:10A578007F28FE12A8507BFF7AA7793DE4F50FF5F6
:10A58800107511F8F5127D50FC7F0AFE12A8507B59
:10A59800FF7AA77956750F077510E07511F87512CF
:10A5A800007D647C007F287E0012A8507BFF7AA77C
:10A5B8007967750F0075101F7511F87512007D7891
:10A5C8007C007F287E0012A8507BFF7AA7797875D7
:10A5D8000F0075101F7511F87512007D8C7C007FB7
:10A5E800287E0012A8507BFF7AA77983750F007523
:10A5F800101F7511F87512007DA07C00E4FFFE1293
:10A60800A8507BFF7AA7799E750F0075101F7511EA
:10A61800F87512007DB47C00E4FFFE12A850750E98
:10A6280001750F7C7B047A017DC87C007F287E0041
:05A6380012A7B880FE2E
:10000300FFFFFFFFFFFFFFFFFFFFFFFFFFFFFFFFFD
:10001300FFFFFFFFFFFFFFFFFFFFFFFFFFFFFFFFED
:10002300FFFFFFFFFFFFFFFFFFFFFFFFFFFFFFFFDD
:10003300FFFFFFFFFFFFFFFFBFFFFFFFDFFFD294C5
:100043006018E238E3382431A120C130E240A13006
:1000530060180010201820202030C150E58109A32A
:10006300EED353E597EE7BEFFEFFFFFFDEF7FFF7DF
:10007300FFFFFFFFFFFFFFFFFFFFFFFFFFFFFFFF8D
:10008300FFFFFFFFFFFFFFFFFFFFFFFFFFFFFFFF7D
:10009300FFFFFFFFFFFFFFFFFFFFFFFFFFFFFFFF6D
:1000A300FFFFFFFFFFFFFFFFFFFFFFFFFFFFFFFF5D
:1000B300FFFFFFFFFFFFFFFFFFFFFFFFFFFFFFFF4D
:1000C300FFFFFFFFFFFFFFFFFFFFFFFFFFFFFFFF3D
:1000D300FFFFFFFFFFFFFFFFFFFFFFFFFFFFFFFF2D
:1000E300FFFFFFFFFFFFFFFFFFFFFFFFFFFFFFFF1D
:1000F300FFFFFFFFFFFFFFFFFFFFFFFFFFFFFFFF0D
:10010300FFFFFFFFFFFFFFFFFFFFFFFFFFFFFFFFFC
:10011300FFFFFFFFFFFFFFFFFFFFFFFFFFFFFFFFEC
:10012300FFFFFFFFFFFFFFFFFFFFFFFFFFFFFFFFDC
:10013300FFFFFFFFFFFFFFFFFFFFFFFFFFFFFFFFCC
:10014300FFFFFFFFFFFFFFFFFFFFFFFFFFFFFFFFBC
:10015300FFFFFFFFFFFFFFFFFFFFFFFFFFFFFFFFAC
:10016300FFFFFFFFFFFFFFFFFFFFFFFFFFFFFFFF9C
:10017300FFFFDFFFFFFFFFFFDFFFFFFFFFFF2B633C
:10018300C0284339E230A12060188028C130E649F5
:10019300485A4C7B4C83AE93CE9BB1C416F632DDEA
:1001A30051CD8FCCCEC36DAB13C57CF7FFFFFFFFE3
:1001B300FFFFFFFFDFFFFFFF9DEFFFFFFFFFFFFFDE
:1001C300FFFFFFFFFFFFFFFFFFFFFFFFFFFFFFFF3C
:1001D300FFFFFFFFFFFFFFFFFFFFFFFFFFFFFFFF2C
:1001E300FFFFFFFFFFFFFFFFFFFFFFFFFFFFFFFF1C
:1001F300FFFFFFFFFFFFFFFFFFFFFFFFFFFFFFFF0C
:10020300FFFFFFFFFFFFFFFFFFFFFFFFFFFFFFFFFB
:10021300FFFFFFFFFFFFFFFFFFFFFFFFFFFFFFFFEB
:10022300FFFFFFFFFFFFFFFFFFFFFFFFFFFFFFFFDB
:10023300FFFFFFFFFFFFFFFFFFFFFFFFFFFFFFFFCB
:10024300FFFFFFFFFFFFFFFFFFFFFFFFFFFFFFFFBB
:10025300FFFFFFFFFFFFFFFFFFFFFFFFFFFFFFFFAB
:10026300FFFFFFFFFFFFFFFFFFFFFFFFFFFFFFFF9B
:10027300FFFFFFFFFFFFFFFFFFFFFFFFFFFFFFFF8B
:10028300FFFFFFFFFFFFFFFFFFFFFFFFFFFFFFFF7B
:10029300FFFFFFFFFFFFFFFFFFFFFFFFFFFFFFFF6B
:1002A300FFFFFFFFFFFFFFFFFFFFFFFFFFFFFFFF5B
:1002B300FFFFDFFFFFFFFFFFFFFFFFFF5CEFA4393F
:1002C300223942316010802020188020D19C3CE7E5
:1002D300FEFFFEFFFFFFFFFFDEFFDEFFFEFF9CFFD3
:1002E300B9FF59FF94E5EBAAC358486216BEFFFF56
:1002F300DFF7FFFFBFF7FFFFFFFFDFFFFFFFFFFF9B
:10030300FFFFFFFFFFFFFFFFFFFFFFFFFFFFFFFFFA
:10031300FFFFFFFFFFFFFFFFFFFFFFFFFFFFFFFFEA
:10032300FFFFFFFFFFFFFFFFFFFFFFFFFFFFFFFFDA
:10033300FFFFFFFFFFFFFFFFFFFFFFFFFFFFFFFFCA
:10034300FFFFFFFFFFFFFFFFFFFFFFFFFFFFFFFFBA
:10035300FFFFFFFFFFFFFFFFFFFFFFFFFFFFFFFFAA
:10036300FFFFFFFFFFFFFFFFFFFFFFFFFFFFFFFF9A
:10037300FFFFFFFFFFFFFFFFFFFFFFFFFFFFFFFF8A
:10038300FFFFFFFFFFFFFFFFFFFFFFFFFFFFFFFF7A
:10039300FFFFFFFFFFFFFFFFFFFFFFFFFFFFFFFF6A
:1003A300FFFFFFFFFFFFFFFFFFFFFFFFFFFFFFFF5A
:1003B300FFFFFFFFFFFFFFFFFFFFFFFFFFFFFFFF4A
:1003C300FFFFFFFFFFFFFFFFFFFFFFFFFFFFFFFF3A
:1003D300FFFFFFFFFFFFFFFFFFFFFFFFFFFFFFFF2A
:1003E300FFFFFFFFFFFFFFFFFFFFFFFFFFFFFFFF1A
:1003F300FFFFFFFFDFFFFFFFFFFFFFFFF6C5023138
:100403008030A020C1186020E1404018AD7BFFFF81
:10041300DEFF7DF7DFFFDFFFDFF7FFFFDFFFFFFF1C
:10042300FEFFBCF7FDFF99E6AEA3A240A230F1A404
:10043300FFFFDFFFFFFFFFFFFFFFFFFFDEFFFFFF0A
:10044300FFFFFFFFFFFFFFFFFFFFFFFFFFFFFFFFB9
:10045300FFFFFFFFFFFFFFFFFFFFFFFFFFFFFFFFA9
:10046300FFFFFFFFFFFFFFFFFFFFFFFFFFFFFFFF99
:10047300FFFFFFFFFFFFFFFFFFFFFFFFFFFFFFFF89
:10048300FFFFFFFFFFFFFFFFFFFFFFFFFFFFFFFF79
:10049300FFFFFFFFFFFFFFFFFFFFFFFFFFFFFFFF69
:1004A300FFFFFFFFFFFFFFFFFFFFFFFFFFFFFFFF59
:1004B300FFFFFFFFFFFFFFFFFFFFFFFFFFFFFFFF49
:1004C300FFFFFFFFFFFFFFFFFFFFFFFFFFFFFFFF39
:1004D300FFFFFFFFFFFFFFFFFFFFFFFFFFFFFFFF29
:1004E300FFFFFFFFFFFFFFFFFFFFFFFFFFFFFFFF19
:1004F300FFFFFFFFFFFFFFFFFFFFFFFFFFFFFFFF09
:10050300FFFFFFFFFFFFFFFFFFFFFFFFFFFFFFFFF8
:10051300FFFFFFFFFFFFFFFFFFFFFFFFFFFFFFFFE8
:10052300FFFFFFFFFFFFFFFFFFFFFFFFFFFFFFFFD8
:10053300FFFFFFFFDFFFFFFFFFFFFFFF4F94A03031
:10054300A1408449D0A4A87201518030C12059D65A
:10055300DDFF9CFF9DFFFFFFFFFFDFF7FFFFDFF7DF
:10056300DFF7BFFFBFFFFFFFDEFF33CD85694030FD
:1005730034ADFFFFBEFFDFFFBEF7FFFFFFFFDEFF70
:10058300FFFFFFFFFFFFFFFFFFFFFFFFFFFFFFFF78
:10059300FFFFFFFFFFFFFFFFFFFFFFFFFFFFFFFF68
:1005A300FFFFFFFFFFFFFFFFFFFFFFFFFFFFFFFF58
:1005B300FFFFFFFFFFFFFFFFFFFFFFFFFFFFFFFF48
:1005C300FFFFFFFFFFFFFFFFFFFFFFFFFFFFFFFF38
:1005D300FFFFFFFFFFFFFFFFFFFFFFFFFFFFFFFF28
:1005E300FFFFFFFFFFFFFFFFFFFFFFFFFFFFFFFF18
:1005F300FFFFFFFFFFFFFFFFFFFFFFFFFFFFFFFF08
:10060300FFFFFFFFFFFFFFFFFFFFFFFFFFFFFFFFF7
:10061300FFFFFFFFFFFFFFFFFFFFFFFFFFFFFFFFE7
:10062300FFFFFFFFFFFFFFFFFFFFFFFFFFFFFFFFD7
:10063300FFFFFFFFFFFFFFFFFFFFFFFFFFFFFFFFC7
:10064300FFFFFFFFFFFFFFFFFFFFFFFFFFFFFFFFB7
:10065300FFFFFFFFFFFFFFFFFFFFFFFFFFFFFFFFA7
:10066300FFFFFFFFFFFFFFFFFFFFFFFFFFFFFFFF97
:10067300FFFFFFFFFFFFFFFFFFF7FEFFE97A603891
:10068300425993D5BCFFD1BCE148E0408030EE9B9A
:100693005AF75AF7DDFFBDF79DEFFEFFDEF77CEF5C
:1006A3009FEFFFFF7EEFFFFFFEFFDDFF77EE856924
:1006B300E23837DEFEFFBEF7FFFFFFFFFFFFDFFF7E
:1006C300FFFFFFFFFFFFFFFFFFFFFFFFFFFFFFFF37
:1006D300FFFFFFFFFFFFFFFFFFFFFFFFFFFFFFFF27
:1006E300FFFFFFFFFFFFFFFFFFFFFFFFFFFFFFFF17
:1006F300FFFFFFFFFFFFFFFFFFFFFFFFFFFFFFFF07
:10070300FFFFFFFFFFFFFFFFFFFFFFFFFFFFFFFFF6
:10071300FFFFFFFFFFFFFFFFFFFFFFFFFFFFFFFFE6
:10072300FFFFFFFFFFFFFFFFFFFFFFFFFFFFFFFFD6
:10073300FFFFFFFFFFFFFFFFFFFFFFFFFFFFFFFFC6
:10074300FFFFFFFFFFFFFFFFFFFFFFFFFFFFFFFFB6
:10075300FFFFFFFFFFFFFFFFFFFFFFFFFFFFFFFFA6
:10076300FFFFFFFFFFFFFFFFFFFFFFFFFFFFFFFF96
:10077300FFFFFFFFFFFFFFFFFFFFFFFFFFFFFFFF86
:10078300FFFFFFFFFFFFFFFFFFFFFFFFFFFFFFFF76
:10079300FFFFFFFFFFFFFFFFFFFFFFFFFFFFFFFF66
:1007A300FFFFFFFFFFFFFFFFFFFFFFFFFFFFFFFF56
:1007B300FFFFFFFFFFFFFFFFFFFF3BEFC559A05008
:1007C3002783D7FE5AFFBCFF6A83A038E048C36182
:1007D30035E6B7F65BFF3BFF5BFF1AFFD9F67BFFFE
:1007E3007CFFDCF7DCF75BFFFAFE9BFF9BFF36E643
:1007F3006359476A9CFFFEFFDEF7FFFFDFFFDFFF62
:10080300DFFFFFFFFFFFFFFFFFFFFFFFFFFFFFFF15
:10081300FFFFFFFFFFFFFFFFFFFFFFFFFFFFFFFFE5
:10082300FFFFFFFFFFFFFFFFFFFFFFFFFFFFFFFFD5
:10083300FFFFFFFFFFFFFFFFFFFFFFFFFFFFFFFFC5
:10084300FFFFFFFFFFFFFFFFFFFFFFFFFFFFFFFFB5
:10085300FFFFFFFFFFFFFFFFFFFFFFFFFFFFFFFFA5
:10086300FFFFFFFFFFFFFFFFFFFFFFFFFFFFFFFF95
:10087300FFFFFFFFFFFFFFFFFFFFFFFFFFFFFFFF85
:10088300FFFFFFFFFFFFFFFFFFFFFFFFFFFFFFFF75
:10089300FFFFFFFFFFFFFFFFFFFFFFFFFFFFFFFF65
:1008A300FFFFFFFFFFFFFFFFFFFFFFFFFFFFFFFF55
:1008B300FFFFFFFFFFFFFFFFFFFFFFFFFFFFFFFF45
:1008C300FFFFFFFFFFFFFFFFFFFFFFFFFFFFFFFF35
:1008D300FFFFFFFFFFFFFFFFFFFFFFFFFFFFFFFF25
:1008E300FFFFFFFFFFFFFFFFFFFFFFFFFFFFFFFF15
:1008F300FFFFFFFFFFFFFFFFFFFF58D622492269DB
:100903006FC518FFB8EEDCFF18EF488BE0500051BD
:100913008DAC59FF18F7D8F639FF56E6B7EE18FF36
:10092300F5FE13EE54F696EE15DED5E598FE9CFF24
:10093300F1D44251D1ACFEFFFFF77DEFDFFF9EFF05
:10094300DEFFDFFFFFFFFFFFFFFFFFFFFFFFFFFFF5
:10095300FFFFFFFFFFFFFFFFFFFFFFFFFFFFFFFFA4
:10096300FFFFFFFFFFFFFFFFFFFFFFFFFFFFFFFF94
:10097300FFFFFFFFFFFFFFFFFFFFFFFFFFFFFFFF84
:10098300FFFFFFFFFFFFFFFFFFFFFFFFFFFFFFFF74
:10099300FFFFFFFFFFFFFFFFFFFFFFFFFFFFFFFF64
:1009A300FFFFFFFFFFFFFFFFFFFFFFFFFFFFFFFF54
:1009B300FFFFFFFFFFFFFFFFFFFFFFFFFFFFFFFF44
:1009C300FFFFFFFFFFFFFFFFFFFFFFFFFFFFFFFF34
:1009D300FFFFFFFFFFFFFFFFFFFFFFFFFFFFFFFF24
:1009E300FFFFFFFFFFFFFFFFFFFFFFFFFFFFFFFF14
:1009F300FFFFFFFFFFFFFFFFFFFFFFFFFFFFFFFF04
:100A0300FFFFFFFFFFFFFFFFFFFFFFFFFFFFFFFFF3
:100A1300FFFFFFFFFFFFFFFFFFFFFFFFFFFFFFFFE3
:100A2300FFFFFFFFFFFFFFFFFFFFFFFFFFFFFFFFD3
:100A3300FFFFBEF7FFFFDFF7FFFF34B56028A77A9C
:100A430053F653F694F6D5FED6FEF3EDC26900597C
:100A5300877AF3ED74FE32F632F64FDDF2F5B1ED3F
:100A6300EDDCECDCCCDCABD4ABD40EDDD1ED33F67A
:100A730074FECC9BC65998EE39FFBBFF9CFF9EF7D3
:100A8300BEFFBEFFDEFFFFFFFEFFDFFFFFFFFFFF37
:100A9300FFFFDFF7FFFFFFFFDEFFFFFFFFFFDFFFCC
:100AA300FFFFFFFFFFFFFFFFDFFFFFFFDEFFDFFFB4
:100AB300DFFFFFFFBEFFFFFFFFFFDEFFFFFFFFFFC5
:100AC300FFFFFFFFFFFFFFFFFFFFFFFFFFFFFFFF33
:100AD300FFFFFFFFFFFFFFFFFFFFFFFFFFFFFFFF23
:100AE300FFFFFFFFFFFFFFFFFFFFFFFFFEFFFEFF15
:100AF300FFFFFFFFFFFFFFFFFFFFFFFFFFFFFFFF03
:100B0300FFFFFFFFFFFFFFFFFFFFFFFFFFFFFFFFF2
:100B1300FFFFFFFFFFFFFFFFFFFFFFFFFFFFFFFFE2
:100B2300FFFFFFFFFFFFFFFFFFFFDFFFFFFFFFFFF2
:100B3300FFFFFFFFFFFFFFFFFFFFFFFFFFFFFFFFC2
:100B4300FFFFFFFFFFFFFFFFFFFFFFFFFFFFFFFFB2
:100B5300FFFFFFFFFFFFFFFFFFFFFFFFFFFFFFFFA2
:100B6300FFFFFFFFFFFFFFFFFFFFFFFFFFFFFFFF92
:100B7300FFFFFFFFFFFFFFFFFFFF309C6028CB9BC2
:100B830032F6B0E5F1ED32EE12EEB1E5EBB3E05043
:100B9300C148CCAB91E5B0ED8BCCABD48BD42AC49C
:100BA3002AC409C4E8BBC7BBC7BB09BC8BCCACCC4C
:100BB3004EDD0FCDE561F1BCD6F6B5EED7EE7BFF8A
:100BC3007CF7FEFFDDFF7CF79DF7DEFFDEFFDFFF37
:100BD300FFFFFFFFDEFFFEFFFFFFFFFFBEF7FFFF8D
:100BE300FEFFDADED6BD33A534ADFBE6BEFF7DF7EF
:100BF3009DFFDEFFBEFFDEFFFEFFFFFFFFFFDFFF08
:100C0300FFFFFFFFFFFFFFFFFFFFFFFFFFFFFFFFF1
:100C1300FFFFFFFFFFFFFFFFFFFFFFFFFFFFFFFFE1
:100C2300FFFFFFFFFFFFFFFFFFFFFFFFFFFFFFFFD1
:100C3300FFFFFFFFFFFFFFFFFFFFFFFFFFFFFFFFC1
:100C4300FFFFFFFFFFFFFFFFFFFFFFFFFFFFFFFFB1
:100C5300FFFFFFFFFFFFFFFFFFFFFFFFFFFFFFFFA1
:100C6300FFFFFFFFFFFFFFFFFFFFFFFFFFFFFFFF91
:100C7300FFFFFFFFFFFFFFFFFFFFFFFFFFFFFFFF81
:100C8300FFFFFFFFFFFFFFFFFFFFFFFFFFFFFFFF71
:100C9300FFFFFFFFFFFFFFFFFFFFFFFFFFFFFFFF61
:100CA300FFFFFFFFFFFFFFFFFFFFFFFFFFFFFFFF51
:100CB300DFFFFFFFFFFFFFFFBEFFEA728030AEBC26
:100CC300D0F52DDD4EDD6FE54EDDCDD4CDDC648A70
:100CD3000038A4712CC46CCC08C4C7BB65B3E7C38C
:100CE300C8BB66B304A3E4A204A387B3E9BB2AC4C5
:100CF300C7B30AB4867A49932ECDCFDD73EEF7FEE0
:100D030039FF39FFF8F6F8EE7BFF9CFF9CFFBDFF30
:100D13009BFFBCFFDDFF7CF75CF7BDF73CEF17C61D
:100D2300B1944C6BEA62AA5AC639AA5AB19CF6C569
:100D3300FAE61AEF3BEF7CF7BDFFBEFFFFFFFEFFB6
:100D4300FFFFFFFFFFFFFFFFFFFFFFFFFFFFFFFFB0
:100D5300FFFFFFFFFFFFFFFFFFFFFFFFFFFFFFFFA0
:100D6300FFFFFFFFFFFFFFFFFFFFFFFFFFFFFFFF90
:100D7300FFFFFFFFFFFFFFFFFFFFFFFFFFFFFFFF80
:100D8300FFFFFFFFFFFFFFFFFFFFFFFFFFFFFFFF70
:100D9300FFFFFFFFFFFFFFFFFFFFFFFFFFFFFFFF60
:100DA300FFFFFFFFFFFFFFFFFFFFFFFFFFFFFFFF50
:100DB300FFFFFFFFFFFFFFFFFFFFFFFFFFFFFFFF40
:100DC300FFFFFFFFFFFFFFFFFFFFFFFFFFFFFFFF30
:100DD300FFFFFFFFFFFFFFFFFFFFFFFFFFFFFFFF20
:100DE300FFFFFFFFFFFFFFFFFFFFFFFFFFFFFFFF10
:100DF300FFFFFFFFFEFFDEFF7CFF2762214950D587
:100E03006EEDECDCECDC0CDDABD44ACC4ACC09C493
:100E130042616048E69AE9BB45AB04A365B344B3BA
:100E2300E4A2C39AC39A04A345AB66B387B366AB84
:100E330065AB88AB289324726BBC2CDD4DDDB0E52C
:100E4300B1E54FD570D5F2E575EED7F618FF19F772
:100E5300D7F635DE15D677DE77D653AD0F844C6BD8
:100E6300685206426852685243318539074A074A35
:100E7300AC83D5C5D9E6B9E61AEF7CF79DFFFEFF33
:100E8300FFFFFFFFFFFFFFFFFFFFFFFFFFFFFFFF6F
:100E9300FFFFFFFFFFFFFFFFFFFFFFFFFFFFFFFF5F
:100EA300FFFFFFFFFFFFFFFFFFFFFFFFFFFFFFFF4F
:100EB300FFFFFFFFFFFFFFFFFFFFFFFFFFFFFFFF3F
:100EC300FFFFFFFFFFFFFFFFFFFFFFFFFFFFFFFF2F
:100ED300FFFFFFFFFFFFFFFFFFFFFFFFFFFFFFFF1F
:100EE300FFFFFFFFFFFFFFFFFFFFFFFFFFFFFFFF0F
:100EF300FFFFFFFFFFFFFFFFFFFFDFFFDFFFDFFF5F
:100F0300FFFFFFFFFFFFFFFFFFFFFFFFFFFFFFFFEE
:100F1300FFFFFFFFFFFFFFFFFFFFFFFFFFFFFFFFDE
:100F2300FFFFFFFFFFFFFFFFFFFFFFFFFFFFFFFFCE
:100F3300DFFFFFFFDDFF7BFFFAFE066AC36950E5B3
:100F43000CE5CBDC0CE56AD408C46ACC4ACC09C4F2
:100F5300A68A6061C17146A3E49A86ABA6BB04A3CB
:100F630045AB05A3C49AC49AC49AE49AE59AE49A51
:100F730025A348A34A9B0472E9B3E7B349C42ABC37
:100F830009C46ACCABD4ABCCCCCC6FDDD1DD70D58E
:100F93002FC530C5D3CDB3C56F948C73EA5A0642BF
:100FA300C539C539E6418431C12023292329C2200B
:100FB300A441264A0E8C36D6B9E6B9E61BEF7CFF70
:100FC300DEFFFFFFFFFFFFFFFFFFFFFFFFFFFFFF4F
:100FD300FFFFFFFFFFFFFFFFFFFFFFFFFFFFFFFF1E
:100FE300DFF7FFFFFFFFFFFFFFFFFFFFFFFFFFFF36
:100FF300FFFFFFFFFFFFFFFFFFFFFFFFFFFFFFFFFE
:10100300DEFFDEFFDEFFBEFFBEFFDEFFDEFFDEFF35
:10101300DEFFDEFFFFFFFFFFFFFFDFFFDFFFDFFF7F
:10102300DFFFFFFFFFFFFFFFFFFFFFFFFFFFDFFF0D
:10103300FFFFFFFFFFFFFFFFFFFFDFFFDFFFDFFF1D
:10104300FFFFFFFFFFFFFFFFFFFFFFFFFFFFFFFFAD
:10105300FFFFFFFFFFFFFFFFFFFFFFFFFFFFFFFF9D
:10106300FFFFFFFFFFFFFFFFFFFFFFFFDFFFDFFFCD
:10107300BEFFDEFF9BFFF8F676F62572047A2FDDBE
:10108300ECDCCCDCCBDCE8BB08C408C44ACC2AC407
:101093002BB4E58A8061A382C8AB66A3259B46A3D4
:1010A300838A638A438243826382A48A059B26A33D
:1010B30025A3289BC98A83592BBCE8BB87B3C9BB2B
:1010C30066B3C7BBC7BBC7B34AC4ABCCACCCCDCCF0
:1010D3000EC5B1D531BD4E940E842B630642C53186
:1010E30064296431A539C639E22020080000A1181B
:1010F300A439A439A5392B6BD5C5B9E657DED9EE8A
:101103005CF7BEFFFFFFFFFFFFFFFFFFFFFFFFFFD8
:10111300FFFFFFFFFFFFFFFFFFFFFFFFFFFFFFFFDC
:10112300FFFFFFFFFFFFFFFFFFFFFFFFFEFFDEFFEE
:10113300DEFFBEFFBEFFBEFF9EFF9EFF9DFF7DF74E
:101143007CFF7CFF5BF75BF75BF75BF77BFF7BFF6A
:101153007CF79CF79CFF9DFFBDFFBDFFBEFFBEFF5D
:10116300BEFFDFFFFFFFDFFFDFFFFFFFFFFFDFFF4D
:10117300FFFFFFFFFFFFFFFFFFFFFFFFFFFFFFFF7C
:10118300FFFFFFFFFFFFFFFFFFFFFFFFFFFFFFFF6C
:10119300FFFFFFFFFFFFFFFFFFFFFFFFFFFFFFFF5C
:1011A300FFFFFFFFFFFFFFFFFFFFDEFFBEF7DEFFD7
:1011B300BEFFBDFF39FF96F635F6868A037A0EE544
:1011C3000DDDECD44AC4E8BB49C4E8BB09BCCCD4AC
:1011D3004BBC479B848A237A269B67A3469B437A0F
:1011E300027202722372857AC5820793679B87A373
:1011F30086A3078B67726251A8A3C8B3A7B3A8B32A
:1012030009C4C8BBA7B309BC6AC409B4C9AB6CBCE5
:10121300CDBCCEB42D946B730A63484285318429C7
:10122300842984296429E639C53923296010A11842
:10123300894AEA5A474AA5394B73B4C557DE77E65C
:10124300BAE65CF7DEFFFFFFFFFFFFFFFFFFFFFFD5
:10125300FFFFFFFFFFFFFFFFFFFFFFFFDFFFDEFFDC
:10126300FEFFFEFFDEFFDEFFBDFF9DFF7CFF7CFF79
:101273007CFF5BFF5BF73BF73AF71AF7FAEEFAEE00
:10128300F9EEF9EEF8EEF8EEF8EEF8EEF8EEF8EE29
:1012930019EF19EF3AF73AF73AF73BF73BF75CF7F1
:1012A3007DF79DFFBEFFBEFFBEFFBEFFDEFFDEFF7D
:1012B300DEFFDFFFDFFFDFFFDFFFDFFFDFFFDFFF3C
:1012C300FFFFFFFFFFFFFFFFFFFFFFFFFFFFFFFF2B
:1012D300FFFFFFFFFFFFFFFFFFFFFFFFFFFFFFFF1B
:1012E300FFFFFFFFFFFFFFFFDFFFBEF7BEF7BEF706
:1012F3009DFF5BFFB6EE13E614F6A692A171ADDC7B
:101303002EDDABCC09BC4ACC09C4CCD40AB48CC402
:1013130048AB8592658AE69288A3C9ABA48AE58A1D
:10132300E68AE68A4893CAA30BAC4CB46CBC8CC463
:1013330029B48CBC045AA351ACBC6AC4ABCC8BCCCF
:101343004CC46CCCEDD40ED54BBCC9A30AAC8DBC3C
:101353006CAC6DA4EC8B2B6BCA52073A8429A43175
:10136300C531C531642964298531E639C639684AEE
:101373000B53EA52CA5AC639C541EE93B4CDB4CD24
:1013830038D6FBEEBEFFFFFFFFFFFFFFFFFFFFFFB0
:10139300FFFFFFFFFFFFFFFFDFFFBEFFBEF79EF76D
:1013A300BDFF9CF79CF75BF71BF7FAEEFAEEFAEE3C
:1013B300F8EED8EED8EED8EED8EEF8EED8EED8EEBA
:1013C300D7EED7EED7EED8EEF7EED7EED7EED7EED1
:1013D300D7E6D7EEF8EEF8EEF9EED9EEF9EEF9EE40
:1013E300FBEE1CF75CF75CF75CF77DFF7DFF7DFF91
:1013F300BEFFBEFFBEFFBEFFBEFFDEFFDEFFDFFFA1
:10140300FFFFFFFFFFFFFFFFFFFFFFFFFFFFFFFFE9
:10141300FFFFFFFFFFFFFFFFFFFFFFFFFFFFFFFFD9
:10142300FFFFFFFFFFFFDFFFBDFF7CF77BF77AF7CF
:101433003AFF17FF52F66EDDF2FDA78A4159EECC53
:101443000DCD0DD58BC4ACD44BC4CDCC2BB4078BF5
:10145300E461046204628672488B0CA42CAC0BA476
:101463006DB42CB4AEC4AECCCECC50DD70DD13F66F
:1014730013E675F62462856AB2DD4FD56FE50DDD9F
:101483002EDD6EE5CCCC4ABC0AB42AB48BBC2AACA4
:101493006CA4AB832A736D738952E539A531442952
:1014A300A539A539A431A431A43184318431C53996
:1014B300474226422742674A8431C95AD1A433B5E9
:1014C30095BD99DE1BEF9DFFDFFFDEFFDFFFBEFF54
:1014D300BEFF9DFF9DFF9DFF7CF73AF719F739F794
:1014E3003AEF19EFD8EEB7EEB7EED7F6B7EEB6EEA2
:1014F300B7EED8F697EED8F6D8F697EED8EEF8EE24
:10150300D8EE97EEF8F6B7F695EEB6EEB5E6B5E695
:1015130096EE96EEB6EEB6EEB7EED7F6D7F6B7EE94
:10152300F8EEF8EE19F719F719F73AF73AF73AF729
:101533003AF73BF75BF75CF77CF77DF7BDF7BEFF48
:10154300FFFFFFFFFFFFFFFFFFFFFFFFFFFFFFFFA8
:10155300FFFFFFFFFFFFFFFFFFFFFFFFFFFFFFFF98
:10156300FFFFFFFFFEFFBDFF5BF719F719F739FF19
:10157300F8FE33E6AFDD4EDDB1ED6AABE37150DD6E
:10158300F0ED2EDD6BC48CCC8CCC0BB4E782E36125
:10159300224101392662A76A045AA349255AC77210
:1015A30028836993AAA3EBAB6DC4CECCADC40ECD97
:1015B300D2E591D5E040EBA395F6B1E58FE58FE554
:1015C300EDD46BC409B44ABC8BBC4BB409ACA89B27
:1015D300A98B0873885A2B6B8952C53184318531A5
:1015E3006431A539C539A431A431A53185316431BC
:1015F30043216329C53106426431274AAD7B919C5F
:10160300F3ACD6CD99E61BF73BF73AF75BFF3AF716
:101613003AF71AF71AF71AEFF9EEF9EED8EEB7EE32
:10162300F8EEF8F6D8F6D8FEB7FE97FE76F676F61D
:10163300B7F6B7F6B7FED8FEB7F6D7F618F7D7EE74
:10164300B6EE96EE96EEB6EE96EE96EEB6F674EE31
:1016530075E675E675E675E675E696EE96EE96EE34
:10166300B7EEB7EEB7EED8EED8EEF8EEF8EEF8EE4A
:10167300F9EEF9EEFAEE1AEF1AEF3BEF3BF75CF7F0
:10168300FFFFFFFFFFFFFFFFFFFFFFFFFFFFFFFF67
:10169300FFFFFFFFFFFFFFFFFFFFFFFFFFFFDFFF77
:1016A300FFFFDEFFDCFF79FFD6F674EE75EE96FEE4
:1016B30054EE90DDB0DDD1EDF2F56ECCA271CEDC4F
:1016C3002DDDABCC6BC40ABCEAB3899BA772E45192
:1016D3000010E228EE8BAD7B6F9483392231C44135
:1016E300E461446AC682489BC9AB4BBCCDCCADC454
:1016F3008EC48A9B00492CB450D590DD2DD58BC464
:101703004BBC09B44ABCACC46BBCA8A3268B2793BF
:101713000773A762885A4C73EA5AC531232164318F
:101723006431C539E639A531842964298531A53960
:10173300632922212321A539A5390642A95AEE831B
:10174300B19C74BD78E6B8EE76EE55EE54E674EED1
:1017530074EEB5F6F7F6D7EEB7EED7EEF8F6F8F681
:10176300D8FE97F656F6D4F512E58FD42ECC4ED488
:101773008FDC8FDCF1EC32ED52EDB3F5F4FD35FE89
:1017830096F6D7FE54E654E6B5EE54EE75EE75F6CE
:1017930054E654E675E655E655E675E676EE76EEDE
:1017A30075EE76EE96EE96EE96EE96EEB7EEB7EE15
:1017B300B8EEB7EEB8EEF9EEF9EEF9EEF9EE1AF788
:1017C300FFFFFFFFFFFFFFFFFFFFFFFFFFFFFFFF26
:1017D300FFFFFFFFFFFFFFFFFFFFFFFFFFFFFFFF16
:1017E300DFFF9DFF79FFF5F652EED1E5D1EDD2EDA6
:1017F300B0E5B0E5F1E5F2EDF2EDEFD4006169BBE0
:10180300EDD4E9B309BCE9B3EAAB8A93C87263398F
:101813004110042124210742EB5AA9524008022116
:10182300C351E3614472689BEAAB2BB4ADC46CBC97
:10183300CFCC8261447A8DC40ECD4FDDCCC46ABC5B
:101843004BBC2AB48CBC2BB4C9A3689BE682C5826B
:101853000773A762885A2B6B8852A53143298531B8
:10186300C639A531A531A5316429232103212329B3
:10187300A431A5318431432964310642274A2B6BB5
:10188300509413AD57E676EEF3E5D1E58FDDAFE582
:10189300CFE531EE73EE94F6B6F6B6F6B7F6B7F6D5
:1018A300F5F532E56FD4EDD3ACD34BCB0ACB0ACBF2
:1018B300AAD2CAD20BDBCAD289CAC9CA0ACBCDE320
:1018C300F0E414FE34FE13EE54E654EE74EE34EEFC
:1018D30054E654EE74EE54E654E654E654EE55EEF4
:1018E30054EE54EE75EE75EE75EE75EE95EE96EEDE
:1018F30097EE76EE96EEB7F6D8F6B7EEB8EEF8F6C4
:10190300FFFFFFFFFFFFFFFFFFFFFFFFFFFFFFFFE4
:10191300FFFFFFFFFFFFFFFFFFFFFFFFFFFFFEFFD5
:10192300BEFF3AF7B6EE52EEEFE5AFE5B1EDB2ED3D
:10193300F1ED12EEF2E5B1DDB1E550E54169058A5D
:10194300EDD488AB47A368A3CAAB0883666283411F
:101953004008000082088629083A2842A118E1209D
:10196300A251446AA57A88A34BBC4BB4ADC48DBCC9
:10197300C78A0059EAB370E52ED58BBC09AC29B4EC
:101983002AB40AB44BB4889B068B278BE682A57ACC
:10199300646204524752A95A0642A5318431853103
:1019A3002742E639A5310321610820004008A11828
:1019B30023218431064268522742A53943296852BC
:1019C300CE83B1A415DEF3E590DD6EE54DDD6DE567
:1019D3008DE56DDD8FE5F1ED34F614F693E531DD3C
:1019E300EDCB8CC34BC32BCB0AD3CAD289CAA9D2A2
:1019F300CAE289D2EAE20ADB2BE38DEB4BE30ADB93
:101A03002AD38BD3F0ECF3FD13EE33E633E653E640
:101A130033E633EE53EE33EE33E633E633E633E6C3
:101A230013EE33EE33EE33EE34EE34E654EE74EE6F
:101A330075EE55EE55EE96EE96F676EE76EE96EE5E
:101A4300FFFFFFFFFFFFFFFFFFFFFFFFFFFFFFFFA3
:101A5300FFFFFFFFFFFFFFFFFFFFFEFFFEFFDEFFB6
:101A63005BFFB7EE33E6D0DDD0E5F1ED12F613F60A
:101A730053F613EEF2E5B1E5B0E5B0E566826048F2
:101A83002CB40BB4079BA58A689B07834562C349A3
:101A9300C12000008110C639C63944294010A02056
:101AA3006151C261847AE9AB2AB40AB44CB4699334
:101AB3002051699B4FDD90E5CCCCE8ABE9AB09AC99
:101AC300C9A3A9A3A9A34793E682C6826472E25974
:101AD300C149A341064A484AA531A5316431432986
:101AE300E639E6398529C2102000200820080000C5
:101AF300A01002218431064227420642E641EA62EF
:101B0300CE7B12ADF4D591DD0DD50CDD2CDD2CDDB6
:101B13002CDD2DDD4FE570E530E5AFDC0DCCACC33E
:101B2300CDDB6BD30ACBEAD2EAD2CAD2A9D289CA15
:101B3300EACAE9C26BD34BD30ACBCDDB0EEC4BD352
:101B4300EAE268CAC9CAECDB91F533F6F1DD12DECD
:101B530012E612E612EE12E612E612EE13EE12E6A9
:101B630012EE13EE33EE33EE33EE33EE53EE54EE6A
:101B730054EE34EE54EE75EE75EE55EE55EE75EE0D
:101B8300FFFFFFFFFFFFFFFFFFFFFFFFFFFFFFFF62
:101B9300FFFFFFFFFFFFFFFFFFFFFEFFDEFF9DF7DE
:101BA300F7F674EE12E6F1E512E633EE54EE55EE77
:101BB30054E6F3DDF3EDF1EDAFE5B0DDECA300208A
:101BC300667ACFCC4CBC479B279BE68A236AA151FC
:101BD300C4490131E228C541C64102312020A03069
:101BE3004051E269C58A679BA8A32BB4899B20490E
:101BF300478B0FCD0ED5CCCC29B4A7A309AC09AC28
:101C0300889B889BA99B4893857203620362C25990
:101C1300E251E449E649A639232184294329442989
:101C23008529C631A631A2100000000041104010E2
:101C330023294329E220A4310642E539C539C95A8B
:101C4300EE8373BDF4DD2FD5ACCCABCCCCD4ECD4CC
:101C5300CDD40EDD0FE58EDC0DCC8CCB4BCB0BCB7B
:101C63000ACB0ACB0ACBEACAC9CAA9CAC9CAEACAF1
:101C73002BCB2BCB4BCB6BCB4BCB6CD38CDBEACAB9
:101C8300A9D24CEBEADA67C28BD310EDD1EDF2E5C2
:101C9300F1E5F1E5D1E5D1E5F1E512E612E612E66B
:101CA30012E612EE12EE33EE33EE33EE33EE33EE94
:101CB30034E634EE54EE54EE54EE54EE54EE54EE59
:101CC300FFFFFFFFFFFFFFFFFFFFFFFFFFFFFFFF21
:101CD300FFFFFFFFFFFFFFFFFFFFFEFFDDFF7CF7BF
:101CE30094EE53E613E633EE54EE54EE75E655E602
:101CF30055E635E634EE12F6CFE5D0DD92D5244134
:101D0300C038CCA3CAAB68A347A3469BA482026A8C
:101D1300C251824921314339223122414149A259D9
:101D2300237AA58A0693E9B34ABCE68A446A288BD8
:101D33000EC5CDC40ECD8BC4C8ABA8A3C8A3889BC6
:101D4300EAA3A99B078BC682446A0262446A0362C0
:101D5300E2510452E64985312321642922212329B2
:101D63004429A531A531E31820000000000800082C
:101D73000221E6414329843106422742474A0A6346
:101D8300AC7B93C5D3DDEFCC6BC44AC4ABCC8BCC5B
:101D9300CED4AED42DC46BBB2BBB4BCB2BD3CACA77
:101DA3002BCB0ACB0ACB0ACB0ACB0ACB0AC30AC377
:101DB300AACACBD248BACACA4DE3EBDA6AD28AD2EC
:101DC3002BDBEAD2CADAEADAE9D2CBDB70F590E5AB
:101DD300B0DDB0DD8FDD8FDDB0DDD1E5F1E5F1E51F
:101DE300F1E5F2E5F2E5F2E512E612E612E612E6B5
:101DF30013E633E634EE34EE34EE33EE33EE33EE05
:101E0300FFFFFFFFFFFFFFFFFFFFFFFFFFFFFFFFDF
:101E1300FFFFDFFFFFFFFFFFFEFFBDFF5AFFF8F6E7
:101E230034E655EE75EE54EE54EE75EE55EE35EEA2
:101E330054EE75EEF3E554EEF3ED91E591E589A3E8
:101E43000030C4516983489BC69A0693058B42723E
:101E5300C25981512149214941498159C161E171E6
:101E6300827AC482C9A3CAA386828582C9ABCCC441
:101E7300EDCCACC48CC42AB4C8A3C8A3A8A3679BE5
:101E8300C9AB889BE58244720362C259A251245AAA
:101E93000452E449A341422922214329432902212F
:101EA3004429853185312429C220611000000008AE
:101EB300073AC952A5316329A431E541885A4B73C6
:101EC300E962909C36DEEFC46BBC29BCE9BB2BC432
:101ED3004FD48CBBE9AAC9B2E9BA0AC32BCB4BD303
:101EE3000ACBEACA0ACB0ACBC9C2A9C2A9C2C9C2D0
:101EF300C9C2EACAEACAA9C289C2C9CAEACA0AD312
:101F0300E9CA6CDB6CE38CE32AD3E9DA2DF4D1ED77
:101F130090DD4FD54FDD90DDB0E590E590DDB0DD90
:101F2300AFDDAFE5D0E5F0E5D1E5D1E5D1E5F1E50C
:101F3300D1E5F1E5F2ED12EE12EE12E6F2E5F2E58D
:101F4300FFFFFFFFFFFFFFFFFFFFFFFFFFFFFFFF9E
:101F5300FFFFFFFFFFFFFFFFDEFF7CF7F9F696EEC3
:101F630055EE75EE75EE74EE75EE75EE55EE34E6E0
:101F730034E634E613E634EE13EE13EED2EDCECCB4
:101F8300455100086239A77AE792689B0683A482C9
:101F93006272016280516049A159436AC482058B10
:101FA300899B6893036A4051647AE9AB8BC4ABCCD9
:101FB300ACC4ACC46BBC2AB4C8A3889B679B889B86
:101FC300C9A34793A47A236AE259A1518149E251F3
:101FD300E449A341C3414229022163294321022148
:101FE30002216429A5316531443185310329200853
:101FF300273AEE7BA4316329632984310A630E8C6B
:10200300AD7BAD83F6D515E64CBCEAB36DCC8ED46F
:102013000AABC9A2C8AAC9B2E9BA0AC30AC3EAC2C7
:102023000ACBEAC2EACAEACAEACAEACA0ACB0BD3A9
:10203300A9C288C288C2A9C289C288C2A9C2EACA7F
:10204300EACA4BDB0BDB2BD38CE3EAE24ADB4FE53B
:102053006FDD2FD54ED56FDD90E58FE56FDD6FDD3D
:102063006EDD6EDD6EDD8FDDB0E5B0E590E590E50C
:10207300B0E5B0E5B0E5D1E5F1E5D1E5D1E5D1E5F0
:10208300FFFFFFFFFFFFFFFFFFFFFFFFFFFFFFFF5D
:10209300FFFFFFFFFFFFFFFFBDFF1AF7B7EE55EE90
:1020A30075EE75EE95EE75EE75EE75EE55EE55EE35
:1020B30075EE34EE54EE13EE13EEF2ED6FDD90E5B4
:1020C3006D8B20000000C2308459087B287BE78297
:1020D3000583A57A236AE361256A86726572236A9A
:1020E3002251C0404151E68A09B429BC08B469C4ED
:1020F3008BC46BBC2AB40AB4C9AB679B679BE9ABBF
:10210300889BE582436AE261A15980496149A149FB
:102113002452C341E4412229021964292321642959
:1021230043294329642943292429C639A539811020
:102133000742CE73432143292221C4392A6B8B736F
:10214300EB628E7B75C558EE52DDCFCCCCB30AA3C0
:102153004692679A88A2A8B2E9BA0AC32BCB0AC3EC
:10216300EAC20ACBEAC2C9C2C9C2CAC22BD38DDB37
:10217300C9CAA9C2A9C2C9CA89C248C289C2EAD204
:1021830088C289CA68CAA9CA8CE30BEBE9D2EEDC20
:102193002ED52ED54ED56FDD6FDD4EDD4EDD4EDDFA
:1021A3004EDD2DDD2DDD4EDD6EE58FE56FE54EDD7C
:1021B3006FE56FDD8FDDB0E5B0E5B0E5B0E590DD4F
:1021C300FFFFFFFFFFFFFFFFFFFFFFFFFFFFFFFF1C
:1021D300FFFFFFFFFFFFFFFF7CF7D9EE76EE55F61B
:1021E30075EE75EE95EE95EE75EE54EE55EE75EED5
:1021F30075EE34EE54F613EE12EED1ED2EDD8FE5CF
:1022030010C5254A0000000800206018E128E238C4
:102213006441644144410339C338A1384030002844
:1022230020300151078B2AB4E8ABC8AB2ABC0ABCE7
:102233002AB42AB4E9ABE9ABC8A3889BA9A3E9AB49
:102243004793A47A226A0262C1598051A151C251B3
:102253002452E349C3412229E118022102214321E7
:1022630044292321642964316431A5398531C2208D
:10227300EB5A895223218331422925422A6B8B7BD6
:10228300AD73AE7BF3AC37DE90BC8BA3A892288AE8
:10229300068A269267A288AAC9B20AC34BCB4BCB44
:1022A3000BCB4BCB2BCB0BCB2BCB0BCBCAC2EAC26F
:1022B300EACAC9CAA9C289C2A9C289CA68C227BA55
:1022C300A8C268C268CA88CAC9D2A9E2C9D26DD4F1
:1022D3002ED52FD56FDD6FDD2EDD0DD52DD54EDD42
:1022E3002DDD2DDD0DDD2DDD2DDD2DDD2DDD0DDDDB
:1022F3004EDD4DDD4EDD6EE58FE58FE58FE58FDD40
:10230300FFFFFFFFFFFFFFFFFFFFFFFFFFFFFFFFDA
:10231300FFFFFFFFFFFFDEFF3BF797EE56EE75F67D
:1023230055EE75EE96F696F675EE54EE54EE95F67A
:1023330096F655EE54EE13EE12EED1ED6EDD4EDD54
:102343002EDDAA8B8431664166498118200000087E
:1023530000000000000800186130E2482259626161
:10236300457A489BE9AB09B4E9B3E9B3CAB3EBBB1C
:10237300E9ABC8A388A3A8A3879BA8A30AACA9A376
:10238300068B847A4372436AE261A151C1590262A6
:10239300035A245AC34983392229E21823210321EA
:1023A3002321232143296429643164316431433176
:1023B300AA5AE639A539A4390542E962AC7B2A6BEE
:1023C3004B6B4B6BB1A457E68FB4E892478A0682F6
:1023D300E589058A469A88AAC9B2E9BA2BC34BC3D1
:1023E3000BC34CCB4CCB0BC3EAC2CABAAABAEBC2DF
:1023F300EACAC9CA88C247BA47BA68BA88C288C291
:1024030088C247BA88D268CA47C248DAC9DAAEDC9A
:1024130090DD70DD6FDD4FD50ED5EDCCEDD40DD550
:10242300ECD4ECD4ECD4ECD4CCD4CCD4ECD4ECD4E9
:102433000CDD0CDD0CD54DDD6EDD6EE56EE56EDD80
:10244300FFFFFFFFFFFFFFFFFFFFFFFFFFFFFFFF99
:10245300FFFFFFFFFFFFDDFF1AF776EE55EE54F6A1
:1024630075EE96EEB6F696F675EE54EE54EE74EE01
:1024730075F654EE13EEF2EDD1E5B0E56EE5ECD46E
:10248300ABD4C672A539E851285AA439A118221829
:102493006008A01801316149C159437A059BA7AB74
:1024A300A8ABE9B3C8B3C8B32ABC0ABC89AB89AB30
:1024B300C8ABC8A388A3A8A3679BA8A32AB4889B77
:1024C300E582A47A63722372E261A159A159E261A0
:1024D3004362856AE351C3416331E11843292321F0
:1024E30043298431642943296431643143296431A4
:1024F300C539C539264A464A875267528C73AC7B25
:102503000963A85A709C16D6CB9BE4710582A581FA
:10251300058AE591269A87AAC9B2EABA0BC32BC3E7
:102523004CC36CCB4CCB4CCB4CCB2CCBEBC2CAC2ED
:10253300A9C268B247B288BAC9C2A9C288C268BA76
:1025430088C288C268CA67C247C2E6D189D2F0ECA2
:10255300F2E5B1DD70D54FD52ED50DCDEDCCCCCC7C
:10256300CCD4CCD4CCD4ABCCABCCABCCCBD4ECD4C4
:10257300EBD4ECD4ECD40CD52DDD2DDD4EDD4EDDCE
:10258300FFFFFFFFFFFFFFFFFFFFFFFFFFFFFFFF58
:10259300FFFFFFFFFEFF9CFFD8F655E654EE54EE17
:1025A30076EE96F6B6F696F675EE74EE74EE74EE77
:1025B30013E6F2E5F2E5B1E5B0E58FE54EDDCCD407
:1025C300CDD461416110E430234120318020A24009
:1025D30082510362857A269387A3E8B328BC28BC7B
:1025E300E8B3C8B309BC2ABCE9B3A8AB87A386A3E5
:1025F300A8A3C8ABA8A3C8A3889BA8A32AB4A8A3CD
:10260300E68AC582637A026AE269A1618059A1619F
:102613006472A57244622552C44122294329432985
:102623006429C539C5318431C539A431632984315D
:10263300A4396752C8624A6BAC7B4B6BAD7BAD7BF5
:102643008B732B6B2F8CF5CDD0BCE4716371C58973
:10265300E5890592269A67AAA8B2EABA0BBB0BBB17
:102663002BC32BC30BC3EABACABACABAAABAAABA49
:1026730088BA88B288BAA9BAA9C2A9C2A9C288BAB3
:1026830068BA88C247C247C2A8CA27DACADAD0E4FE
:1026930013E6D2DDB1D590D56FD54FD52ED5EDCC80
:1026A300EDD4CDD4CCD4ABCCABCCABCCCBD4CBD482
:1026B300CBCCCBCCCBCCECCC0CD52DD52DDD4EDD82
:1026C300FFFFFFFFFFFFFFFFFFFFFFFFFFFFFFFF17
:1026D300FFFFFFFFDEFF5BF7B7EE55E654EE74F640
:1026E30076EE96F696F676EE75EE95F674EE53EE76
:1026F30054EE33EE33EED1E590E54FDDACCC6BC455
:102703002CB4223121004110A030A149C259847157
:102713002582E7A28ABB0BCC4BCC6CCC4BC40AB44E
:10272300C8BBE9BBEABBC9B3C9B387A3659B84A391
:10273300679BC8AB88A3A8A3879B679BE9ABC9A387
:102743002793068B647A23722372E269A161C169BC
:10275300A47AE68227830873A762E5416331433194
:102763008431A43184296329643143296331E541E8
:10277300C862C8620963ED832E8CEE83CD7B308CF7
:102783000E8C0F8CF3ACB5CD2EAC62614371237903
:102793008381E591469A67AA88AAC9BAEABAA9AA1F
:1027A300CAB2CAB2EABAEBBA0BC34CCB4CCB0BC31B
:1027B3002ACB4BCB0AC3C9BAC9BAEAC20ACBC9C22C
:1027C300C9C209CB67CA67C2A8D248DAA9DAEDCB76
:1027D300F3DDD3DDF2DDD2DD90DD70D56FDD4FDDCE
:1027E3000ED5CDD4ACCC8BC48BCCCBCCCBCCABCC9F
:1027F300ABCCABCCCBCCCCCCECCC0DD52DD54EDDF2
:10280300FFFFFFFFFFFFFFFFFFFFFFFFFFFFFFFFD5
:10281300FFF7FFFF9DFFF9FE55EE13E613EE54EEAF
:1028230075EEB5F6B6F6B6EE96EE75EE75EE75EE9A
:1028330054EE13E633EE13EEB1E56FDD2ED54EDD28
:1028430030CDE13000004008C028446A237A437A3F
:1028530008A3EBBB6DCC4CCC6BC46BC429B429B4BB
:1028630009B409B40AB4E9B3C8B3C8B3A7AB45A361
:10287300A8A388A3879B679B679B88A3A8A3A8A3F8
:10288300469BA4828382637A437A22720172437ADB
:10289300E58AE58A6793A99BAA8B4973454AC431A4
:1028A300442923214429A5398331E439664AA75AA7
:1028B300E86A6A7BEC8BEC834E944F94D19C0E8434
:1028C300B19474AD32ADD5CD4FACC469C57922692D
:1028D3008371E5816792679A889A68A2A8A2C9B2B0
:1028E3004BBB6CC38CCB6CCB4BC30BC32BCB4CCB39
:1028F300EAC22BC32BCBEAC2EAC20AC3EAC2A9BA11
:102903000AC32BC3C9C288CA68D288D2E9D2ABDB57
:10291300D3E5F3E513E6F3DDF2DDD1DDB1DD70D50B
:102923002ED5ADC48CBCACC4ACC48BC4ABCCCBCCAB
:10293300ABCCABCCABCCABCCECD40DDD2DDD0DDD1A
:10294300FFFFFFFFFFFFFFFFFFFFFFFFFFFFFFFF94
:10295300FFFFFFFF7CFF97EE13E6F2E533EE54EE45
:1029630075EE96EEB6F6B7F6B6EE96EE96F695F6E5
:1029730075F633E613E6D2E591DDB0E590E5B0E513
:1029830010CD065AC32881204249C269227A849213
:10299300879B4AB4ACC46BC46BBC8CC46BBC4BB4D8
:1029A3002ABC09BCE9BBE9BBE9B388AB87A3E9ABA4
:1029B3000AB4C9ABA8A388A3679B679B87A388A313
:1029C300469BE592C48AA48A8482437A227A6382EC
:1029D300A482A482268BC99B4BA48DA4EB8BC762D4
:1029E300A53943296331264A054A46520863CB7BFE
:1029F300CB8B2D94EC8BAC836F9412AD53AD709451
:102A0300909412A574B516D66FACA4616361426944
:102A13008371A479C581068A679AC9AA2BBB6CC343
:102A23006CC36CC36CCB6CCB2BCB2BC30BCB2BCB27
:102A3300CAC2EAC2EAC2C9C2C9C2EAC2CAC2A9BAFE
:102A43002BC3EAC2A8C2A9D289DA67D2C9CAECDB0E
:102A5300F3E513E613E6F2DDF2DDB1DD90D570D5D3
:102A63004FD5EECCCDCC0ED50ED5EDD4CBCC8AC480
:102A73008BCC8BCC8BCCABCCABCCCCD4ECD4ECD440
:102A8300FFFFFFFFFFFFFFFFFFFFFFFFFFFFFFFF53
:102A9300FFFFFFFF3BF715E6D2DDF2E512EE34EE62
:102AA30034DE75E696EE96EE96EE76EE76EE75EEFF
:102AB30075F634E613E6D2DDB1E5D1E5D0E5D1E52F
:102AC30071DD8FB4075A00204359A271A169C692E0
:102AD300669308AC6ABC6BBC6BC48CC44BC4E9B3CF
:102AE300C8B3E9BBE9BBA8B3C9BB2BBC4BBC4BB454
:102AF3000AB4C9ABC9ABA8AB67A3469B67A387A3BB
:102B03000693E59205930593E5928482227A638284
:102B1300637AA4822693A9A3C9A30BA48DACEB9BD0
:102B23008A8329734973EC8BAB838B83EC8BAFA4C0
:102B33004D9C8E9C4E9C4E946E9C32AD73B5D1A42D
:102B430012A5B19C53B5F5CD8FACE569E150426157
:102B53004269A479058A889A0AB34BBB4BC36BC3FA
:102B63006CCB4CCB2BC30BC30BC3EAC2CAC2CAC2C6
:102B7300EACAEACAEACAC9CAC9CACACAC9CAC9CA56
:102B83000BCBC9C288C288D268DA67D26AD3CFECCA
:102B9300D2DDD2DDF2DDF2DDF2DDF2DDD1E5D1E52C
:102BA30090DD70D52FD5EDCC8BBC4ABC8AC4ABCCA1
:102BB3006AC46AC48ACC8BCC8BCCABCCCCD4CCD4FB
:102BC300FFFFFFFFFFFFFFFFFFFFFFFFFFFFFFFF12
:102BD300FFFFDEFFF9F6F3DDB1DDD1E5F2E533E624
:102BE30034DE75E6B6EEB7EE97EE96EE76EE76EE5B
:102BF30075EE34E613E6D2E5D1E5D1E590DD90E557
:102C030090DDC8826130A338C6696359803863494F
:102C1300256AE88A8AA3EBBB0AC42AC46ACC4ACCD5
:102C23000ABCC9B309BC6BCC6BCC4BC42AB40AAC89
:102C33002ABC0AB4E9B388AB269B059B259B26A334
:102C4300269BE59A069B26A3069B848A4282848A56
:102C5300647A637A637A06932693E58AC9A32AACD6
:102C63002BA42B9C4CA4ADAC6DA46DA44DA46EA45D
:102C7300AEAC0C940C94AFA46E9C73BDF5CD73BD38
:102C830094BD33AD94BDD5CD2EA48359A0484261E4
:102C93008379058A88A2E9AA0ABB2ABB2AC32BC364
:102CA3004CCB4BCB2BCB0BC30BC3EBC2EAC2CAC27D
:102CB300C9CAA9CAA9CAC9CAA9CAA9CAA9CAC9D211
:102CC300EAD20BDB0ADBC9DAE9DA4AD36DDC90E539
:102CD300D1DDF2DDF2E5F2DDD1DDB1DDB1DDB1DD76
:102CE300B1DD70D52FCDEEC4ACC48CC48BBC6ABC33
:102CF3006AC46AC46AC48AC48AC4ABCCABCCABCC46
:102D0300FFFFFFFFFFFFFFFFFFFFFFFFFFFFFFFFD0
:102D1300FFFF9DFFB8EEF3E5B0E5B0DDD1DD33EEA7
:102D230054E675EEB6EEB7EE96EE76EE75EE55EE2C
:102D330075EE34EE33E6D2E591DD90DD4FD54FDD10
:102D43006FDD088B40288330612840200008200075
:102D530000102020813044510672A782699BCAABC0
:102D63004BB44BB44BBC8BCC8BCC6AC44AC44ABC6B
:102D73002ABC2ABC09BC87AB259B259B46A366A31B
:102D8300C8B367A346A367A346A3A492838A269BDB
:102D930026930693A48A469B46A3A38A46A309BC0B
:102DA3004AAC2AACC99BA99389930B9C2CA42DA450
:102DB300AEAC2C9C4DA410B5AFAC93C5F5CD94C56A
:102DC300D5C574BD94C5D4CD0DA4A3612159837118
:102DD300E589469AA8A2C9AAC9B2C9BAE9BA0AC377
:102DE3000BCB0BCB0BCB0BCB0BCB0BCBEBCAEBCA72
:102DF300A9CAA9CAA9CAC9CAA9CA88CAA9CAEAD2F0
:102E0300ECEACADAA8CAC8CA8BDB8DE42FD58FCD0A
:102E130070D590D5B1DDB1DDB1D591D591D590D532
:102E230070CD70D550CD2FCDEECCEDC4ACC48BBCE2
:102E33008AC46AC46AC48AC48BC4ABCCCBCCABCCC3
:102E4300FFFFFFFFFFFFFFFFFFFFFFFFFFFFFFFF8F
:102E5300FFFF5BF776E6D1E58FDD6FDDD1DD34EE85
:102E630054E675EE95EE96EE75EE55EE34EE14E6F9
:102E730034EE33E633EED2E590DD4FD5EDCC0DD510
:102E83008FDDAA9300180010001020104008620084
:102E93006108A218A2184431A6418541A541C6493B
:102EA300045A698B2CAC2BB44BBC29BC08BC28C47A
:102EB300E9B30ABC2ABCE9B3A8ABC8ABC8B3A7AB98
:102EC30009BCA8ABA7ABC8B3A7ABE592A38A46A33B
:102ED300679B67A3059366A3A7B325A3059B87AB4E
:102EE300C8A3C8A3879BC99B0AA44CAC4CA46DACD4
:102EF3008DACCEB4EFB4F0B410B5B3CD73C552BD41
:102F0300D5C594BD73C5B4CD0DA4E469A37183790C
:102F13000592269A67A288AAC9B2E9BA0AC32BCB3B
:102F2300CAC2EAC2EAC2EBCA0BCB0BCB0BCB0BCBAD
:102F3300C9CAA9CAA9CAC9CAA9CA89CAA9D2EAD285
:102F43008ADAEAD26ACBCBCB2CD46CCCCDBC2DB5F0
:102F53002ECD4FD570D570D590D590D591D590D530
:102F630091D5B1D571D52FC5CEBCADBCACBCCCC44D
:102F73008CC46BC46BC48BC4ACC4CCCCCCCCACCC39
:102F8300FFFFFFFFFFFFFFFFFFFFFFFFFFFFFFFF4E
:102F9300FFFF1AF735E6D1DD6EDD6EDDD1DD13E619
:102FA30033EE54EE74EE54EE54EE34EE33EE13EE91
:102FB300F2E5F2E5F2EDD1E5B0E52EDDCCCC0DD5B1
:102FC300B1DD055A0008401080208028E130A020A0
:102FD300E0284239C028C128023943390752CA625E
:102FE300C9724762055A87728A9B2BBC2AC4E8BB05
:102FF300E9B309BC4AC46AC44ABC09B408B4E8B317
:1030030009B4C8B3C8B3E8B3C8B3469BC49246A3D4
:10301300269B87A3A7ABC8B3E8BB87AB87AB09BC29
:103023008BBC8BBC6BB4ADBCCDC40EC5AEB4CEBC37
:10303300EFBCCFB4AEAC4DA431BDD4D5B3CD93C5A5
:10304300D5C5B4C5D5CD73CD0A8B225942718379C9
:10305300C489269A87AAE9BA2AC32ACB0AC3EAC231
:103063000BCBEBCA0BCB2BCB4CCB4CD34CCB4CCBA2
:10307300EAD2C9CAA9CAC9CACACAC9D2EAD2EAD251
:103083004CE3ABD3EBC32BBC2ABC0AB44BB4ACB4F8
:10309300CDC4CDC40ECD2FCD50D591DDB1DDD2DD64
:1030A30013DEF3DDB2D591D570CD2FCDCDBCACBC45
:1030B300CCC4ACC4ACC4CCC4CDC4EDCCEDCCCDC479
:1030C300FFFFFFFFFFFFFFFFFFFFFFFFFFFFFFFF0D
:1030D300FEFFF9EE34E6B0DD6EDD8EDDD1E5D2DD47
:1030E30012E612E613E613E613E613E6F2E5D2E57B
:1030F300F2E5D1E5D1E590E56FDD2EDDEDD46EE5AA
:103103002CA440186118E220255A246AA261657A2A
:10311300C58A0793447A65822893C78A246A6251D1
:103123000331644168626862A459667ACAB3C9BB51
:1031330009B4E8B329BC6AC46ABC49BC6ABC8AC482
:1031430009BC09B4E8B3C8ABC8AB67A3269B87AB7C
:10315300C8ABA7ABC7B3E8BB08BCE8B3A8ABE9B33C
:103163008CC4ACC46BB46CB48CBCEEBCCDB4EEBC40
:103173000FBDCEB410BDAEB451C593CDB4CDD4D52F
:10318300B4C532B553BDD1BC877AE1586279A489FD
:10319300059A47A288AAC8B2E9BAE9C2EAC20ACB29
:1031A3000BCBEBC2EAC20BCB4CCB6CCB4CCB4CCB9B
:1031B3008CE34BDB2BD32BDB4CDB6CE36BE36BE361
:1031C3004BC36AB3899BC893E9A32AB44BC46CC4A9
:1031D300CDCCCDCCEDCCEECC0ECD2FCD50CD50CD36
:1031E300D2D5F3DDF3DDD2DD91D550CD2FCD2FCD6B
:1031F300EDC4EDC4EDC4EDCCEDC4EDCC0ECD0ECDE0
:10320300FFFFFFFFFFFFFFFFFFFFFFFFFFFFFFFFCB
:103213007DFF77EED3DD91DD90DDB0DDB0DDB0E590
:10322300D1E5D2E5F2ED13EE12E6D2E5B1DD90DDA4
:10323300B0DDD1DDD1E590E570DD6FDDD1E54FD5B2
:1032430086390010A030A782279B848AE58A87A34A
:10325300A9A38DC4EAB3479B4BBC8CC4E9B34ABC56
:1032630067ABA582E459064A885AE451C2592793A9
:10327300A8B386B3E6BBE6B36AC48CC42ABC8BC4CA
:103283006AC409BCA7AB66A366A366A346A3059B52
:10329300C8B3C8B3C8B32ABC4AC4E9B3C8AB09BCF2
:1032A3004BC46BC48CC48CC48DBCADBCEEC40FC505
:1032B30070CD8DB4CEBC50C550C591CD92CDB2CD9D
:1032C30072BD72C531BDECA3836101618379E48969
:1032D300059A87AAA8B2A8B2C9BA0AC30ACB0ACB6D
:1032E3000ACBEACA2BCB4CD32CCB4CD38DD36DD387
:1032F3006CCB8DDBAEE330F48DDB0AC3CCD38AC356
:10330300C9A30AACE9ABE9AB0AAC2AB48CBCACC424
:10331300EDC48CBCACC4EDC4CDC4EDC42FCD2FCD56
:10332300B1D5D2DDF3DDF3DDF4DDD3DDB2D550CDA0
:10333300EECC0FCD0ECDEECC0ECD2ECD2ECD2ECD93
:10334300FFFFFFFFFFFFFFFFFFFFFFFFFFFFFFFF8A
:103353005BFF56E6B2DD90DD6FDDB0DD90E5B0E5F5
:1033630090E5B0E5B1E5D2E5F2E5F2E5F2E5F2E5A7
:10337300D1E5D2E5F2ED90E58FDD6FDDD2E50BA46B
:1033830020188028098B0BB4E692069B2AB4CDCC77
:103393000FD5EED42FDDACC488A3A8ABE9B346A305
:1033A30068A34793068BC67AA3518349265A2339C8
:1033B300C78A67A3C7AB08B44AC44AC42ABCC8AB0C
:1033C30029BCE8B3A7AB87AB87AB87AB87AB66A357
:1033D30087ABC8ABE8B309BC2ABC09BCC8B3E9B323
:1033E3004BC46BC48CC48CC4CDC40FCD2FCD2FCD97
:1033F30050CD0EC5EEBCEEBC70CD91CD91CDF3D5C5
:1034030072C551C552CDECA362612161A479058ACD
:10341300269A87AAA8B2C9BAE9C20ACBEACA0AD3CA
:103423002BCBADDB8CD34CD38DDBAEDB6DD36DD32C
:10343300ADDBCEE3EFEBAEE34CCB4EDC51E52BB48F
:10344300889BE9ABC9A3C9A3C9A3C9A30AAC2AB47E
:103453006BB42AB44AB46BB46BB4ACBCEEC42ECD1B
:1034630091D5D2DD13E634E634E613E6B1D54FCD7C
:10347300EECCEECCCDC4ADC4CDC4EDCC0DCD2ECDB4
:10348300FFFFFFFFFFFFFFFFFFFFFFFFFFFFFFFF49
:1034930019FF34E6B1DD6FDD4ED56FDD6FDD6FE50E
:1034A3006FDD6FDD90DDD1DDF2E513E613EE33EE74
:1034B300D2E5B1DDD0E58FE5AFE590DD50D56251C2
:1034C3000018466A4DBCEAB3059BA8AB8CC4EECC8E
:1034D3008CC4EED4EED4CDCCACCC4BC409BCC8B3B5
:1034E300EAAB0AB409BCC7B3A8AB66720329093AAD
:1034F30063498672889B29BC08BC09BC8BCC29BC58
:10350300C8B3A7AB87AB87AB87ABA7ABA7ABA7AB5F
:10351300A8ABC8B3E8B3E9B309BCC8B3A8ABC8B395
:103523004BBC6BC46BC46CBCADC40ECD50D570D555
:10353300EEC40FC52FC550C5B2D5B1CD71C5F3D5F6
:1035430071C551C572D58BA322616269C48126926C
:1035530087A288AAA8B2C9BAEAC2EACAEACA0BD33E
:103563000AC32BCB6CD36CD34CD36DDB8DDB6CDB01
:103573000BDB6CE3EAC22BBB11E5F4F5CEBC077B96
:10358300E58A068BE58A2693689B889BC9A3E9ABEA
:10359300E9AB0AAC4BB48CBCEDC4EDC40ECD4FCD3E
:1035A30091D5B1DDB2D571CD30C50FC5EDC4ACBC7D
:1035B3008CBC8CBC8CBC8CBCCCC4EDC40DCD2DCDD3
:1035C300FFFFFFFFFFFFFFFFFFFFFFFFFFFFDEFF29
:1035D300B7F6F3DDB0DD4EDD0DD50DD52ED52EDDE1
:1035E3004FDD6FDDD1E513E633EE34E633E613EE5C
:1035F300F3EDB1DD6FDD6DDD4DDDB0E56EBC603843
:1036030022510CB40BB4269B87ABE9B32BBCEBB3B1
:103613000AB4E9B388A388AB0ABC0ABC09BC2ABCB8
:103623008CC44ABC65B324AB86B3A9A3A872033187
:103633008449A359078BC9B3A7B3E8BB29BC09B411
:10364300A7ABA7ABC8B3A8B3A8B3A8B3C8B3C8B351
:1036530009BCC8B3A8ABE8B309B4A8ABA8AB09BC11
:1036630009BC4BBC6BC48CC4ACC40ECD2FCD2FCDC9
:10367300EEC4CDBC4FCDF2DDD2D571CD91CDD2D537
:1036830092CDB3D5D0C4C88A22618479058A87A232
:10369300C8AAC8AAC9B2E9BAEAC2EACAEACAEAD255
:1036A3002BD3EACA0BD30BDBA9CA89CAEAD22BDB19
:1036B300EADAEACAACC3F0CC34E6D2D5EAA3E682AE
:1036C300679B889B889B889B889B679BA9A30AAC65
:1036D3004BB4CCC4EDCC0ECD2ECD0ECDCDC40EC58A
:1036E3000FCD30CD50CDEFC48DB42BAC2AAC2AAC6A
:1036F3002AB44AB44BB46BBCACC4CDC4EDCC2DCD11
:10370300FFFFFFFFFFFFFFFFFFFFFEFFFEFF9DFF2A
:1037130054E6B1DD8FDD4DDD0CCD0DCD0ED52EDDA7
:10372300B0E5F2E553EE74EE54EE34EE13E6F3E552
:10373300F2EDB1E56FDD6DDDCBCC2FD5A782203067
:103743004582CAB3479BC48A0593269B68A3079304
:10375300E692C58A8482838A6382848A47A3C8B334
:10376300E8BB45ABE39A45AB45AB05A3C59A238AB2
:103773006259C048E37168AB87B3C7B309BC0AB4E5
:10378300A7ABC8B3E8B3E8B3E8B3E8B3E8B3E9BBBE
:1037930009BCC8ABA7ABC8B3E9B3E8B309BC4AC417
:1037A3004AC44AC44ABC2ABC8BBCEDCC2ECD0ECD38
:1037B3002ECDCDBC2FCDB1DD70D570CDD2D5B2D548
:1037C30031C5D3DD0CB44682C4790692469A87A2EA
:1037D300A8AAE9B22ABB2AC32ACB2BCB0ACBC9CAD4
:1037E300C9D2C9D2A8D288D2A9D288CAA8CA2ADB88
:1037F3002ACB09AB4DBC91CDD1CDCDB4889BA9AB20
:10380300A8A3A9A3889BC9A3E9ABA9A3C9A30AAC8D
:10381300E9AB4BB46BBC8CBCEDC40ECD2ECD90D5B7
:10382300B1DDD2E5D2DD70CDCEBC6CB42AB429AC07
:103833002AB42AB42AB44AB46BBCACC4CDC40ECDEA
:10384300FFFFFFFFFFFFFFFFFFFFFFFFDEFF3BF772
:10385300D2DD6FD56EDD4DDD0DD52ED54FD590DD87
:1038630033EE74F695F675F654EE33EE13EEF2E599
:10387300F1ED90E50DD50DD5CCCC0ECD22514030D8
:1038830028A327A3269BE492259BA8ABC9AB0BBC1B
:1038930067A3C9AB479BE692C58A4382848A069B8A
:1038A30045AB25A346A3838A8392E4AA61A220A2FF
:1038B30003822061A050868AC8B3C7B309BC67A33B
:1038C30087ABC8B3E8B3E8B3E8B3E9BB09BC09BC49
:1038D30009BC09BCE9B3C8B3C8B309B429BC09BC62
:1038E3006AC42ABCE9B309B48BBC0DCD0DCDACBC05
:1038F3006FD56FD54FD570D590D5D1DDF2DD70CDB5
:1039030071CD31D5A78A6371C581469A88A2E9B280
:10391300E9B20ABB4AC34AC34AC36BCB6BCB2ACBBC
:10392300C9CAE9CAC9CAC9CA0ACB4AD36AC34ABB04
:10393300657A499330CD91D52BAC478B268B88A3E1
:10394300C9A32AB42AB44BB40AACA9A3C9A3EAAB4A
:10395300A8A309AC2AB44AB4ACBCEDC42ECD90DD07
:1039630091DD91DD91D550CD0FC5ADBC4BB42AB4DB
:10397300E9ABE9AB09AC4AB48CBCACC4CDCC0ED535
:10398300FEFFFFFFFFFFFFFFFFFFFFFFDDFFF9EE7E
:1039930091DD2ED54DDD4DDD4ED590D5D1DD13E630
:1039A30075EEB6F695F654EE13E613EEF2EDB0E5CA
:1039B3006EDD4EDD0ED54FDDB1E530D5E040024979
:1039C3004CCCC9B388A3479BC9AB4BBCEAB34BC42C
:1039D3000AB4EAB3479B0693A58A437A6482437A7F
:1039E300017AE59A059B059BC39A6292C3A2C3A27F
:1039F300A3A22492A0506261279387A3C7B387AB86
:103A0300A7ABE8B3E9BBE8B3E8B3E9BB09BC09BCBE
:103A13002ABC4AC42ABCC8B387ABC8B309BCE9B340
:103A2300C8B3C8B3E9B36BC4EDCC2ED5CCC42AACB0
:103A33004ED5B0DD90DD6FD590D5D1DDF2DD4FCD24
:103A430050D50CB4E4798379069288A2E9B22ABBF3
:103A53004BC34BC36BC36BC38BC38CCB8CCB6BC3C1
:103A6300ACCB8CC3ACCB8CBB0AABE992877AA359A2
:103A7300E77AEFBC92DD4DBC4893A482A37A6693A8
:103A83004793679B679B889BC9A3A8A3889B889B35
:103A9300C8A32AB46BB46BBCACBCEDC40ECD2ECDA5
:103AA30070D591D5D2DDD2DD71D5EEC44CB4EAAB7D
:103AB300E9ABE9AB2AB46CBCCDC4CDCCCECC0FD52D
:103AC300FEFFFFFFFFFFFFFFFFFFFFFFBDFFD8E686
:103AD30090DD0ED52DD54DD56ED5F1DD33E674EEE3
:103AE30055EE96EE75EE13E6F2E512E6D1E58FDDBF
:103AF3006DDDAFE5B0ED70E591E54DBC8038C56196
:103B0300EABB68AB47A3A9A32AB48CC48CC4EABBA1
:103B130088A389A3A58264828582237A237AE271AA
:103B23006482E17121828292A29AC49AE5920793F8
:103B330004B3E7A2C1500030447287A366ABC8BB8D
:103B430009BC29BC29BC09BC09BC09BC09BC09BC0A
:103B530029BC2ABC09BCC8AB87A3A7AB09BC4AC410
:103B6300C8B3C8B309BC6BC4EDCC0DCDEDC48BBCDD
:103B73000ECD6FDD90DD6FD52ECD6FCDD1DD2FCD89
:103B830051D52893C371469288A20ABB2ABB6BC343
:103B93006CCB4BC38CCBEDD3EDD3CCCB8BC34ABB1C
:103BA3002AA3C99A267AA469A459C551264AA752B9
:103BB3004DAC72CD92D50BACC582847A837A006A00
:103BC300227243724372A482068B068B4793679BD0
:103BD300E9AB2AB46BB48BBCACBCCDC40EC50ECD63
:103BE3004FCD91D5D2DDB2D550CDCEBC8DB44CB432
:103BF3006BBC4BBC6BBC8CC4ADC4ADC4CECCEFCCE6
:103C0300FFFFFFFFFFFFFFFFFFFFFFFFBDFF76E6A5
:103C13004FDD2ED50ED52ED5B1DDF2E513E633E615
:103C230076EE95F633EEF1E5F1EDD0ED6EDDEDCC0C
:103C33004EDDD0DD32EE4EE50CDDAB9B6030A6826F
:103C430068B306A347A3A9ABEAAB0AAC0AAC889B4B
:103C53006793847AE269E371A269C26964828482A8
:103C63008492638A027AC171027AC49205A3E4A2A0
:103C7300E3AAE4A2C3610008A45146AB45B3E9BB80
:103C8300E9B3A8ABC9B30ABC2ABC2ABC4AC42AC438
:103C930008B4E8B3E8B309B4A7AB87ABA8B3E8BBF0
:103CA3000AB40AB44BBCACCC8CC4ACC40DD5ECCCBC
:103CB3004ED56FD58FDD4ED56FD54FCDCDBC50CD05
:103CC3006ECC878A478AC9A2EAB24CC36BC3ACCB1A
:103CD300CFCB0FD48CBBCCB3C89222594359E669DE
:103CE300066284516341A449055205524662AB8B77
:103CF3000FCD91DDAEC4899B2793C5824372427277
:103D0300837A837AC4822693479B879BC9AB09AC8A
:103D13006BB46BB46BB4ACBCACBCACBCEDC42EC567
:103D23002ECD2FCD2FCD2FCDEEC48CBC2BB40AAC12
:103D33004AB44BBC4BBC6CBC8DBCCDC4EECCEECCFE
:103D4300FFFFFFFFFFFFFFFFFFFFFFFF9CFF35E6C6
:103D53002ED54ED54FD590DDF1E513E634EE54EE76
:103D630096F675EE12E68FDD6EDD4EDD6FDD8FE5C7
:103D7300D0EDD0DD70DDECDC4EE5AB9B2020868200
:103D8300E69A27A3CAAB2BB4EAABCAA36893857A96
:103D93004372036AA25981596151C261647A848270
:103DA300C69AC5926482E171A069017AA39225A3A0
:103DB300E4A246AB867A2010023906A3A7BB09BC4E
:103DC3002ABCE9B309BC4AC44AC42AC42AC42AC4C3
:103DD30029BC08B409B4E8B3A8B387AB87AB46A33F
:103DE300A8ABE9B36BC4CDCCACC48CC40DD50DD595
:103DF3004FD50DCDEDC4ECC44ED56FD5CDC40FCD8D
:103E03006AA3668AA8922AAB4BBBCDCBEDCBACBBE6
:103E1300A992235942592249C038424963518451D6
:103E23004349E238A449055A255A6662E87A2DA423
:103E330030CDB2E54CB4847A857A268B068B4793D2
:103E43004693479B88A3E9AB0AB40AB40AB40AB4FD
:103E53002AAC4AB46BBCACBCACBCACBCCDC4EEC4E9
:103E63002ECD2ECDEEC4ADBC4CB42BAC0AAC2AB4D3
:103E73004BB44BB42BB44BB48CBCCDC40ECD2FCDB3
:103E8300FFFFFFFFFFFFFFFFFFFFFFFF7BFFF3DDF1
:103E93002ED54FDD6FDDB0DDF2E513E634EE74EEC3
:103EA30076EE54EEF2E58FDD4ED54ED56FDDD1EDD6
:103EB300D1EDB0D54FD5ACD4ECD42A8B0018868283
:103EC300279B479BA9A3A99B27930783A67A036AEA
:103ED300615140412039203921414149A261457A4C
:103EE3004482858AC5928482E171A069017A838ABA
:103EF300E49A87B3699BA1288028C59AE8C32AC49A
:103F03000ABCE9B30ABC6BC44AC409BCE9BBE9BB3C
:103F130009B4E8B3E8B3E8B3C8B3A8B387AB26A33F
:103F2300C9B32ABCACCCEDD4ACC48CC40DD52ED54E
:103F33002ED5CDC4CCC46EDD6FDDEDCCADC4AEC427
:103F4300ABA3299B6AABABBB09AB879A2682E25032
:103F530020280241C451C451265A675AA5498441B5
:103F630023410239C5514662666AE77A8A93AEBC39
:103F730091DD0FCD689B2372647AC582C582E58A81
:103F8300E58A2693679BC8A3E9ABC9ABC8A3C9ABB2
:103F93002AB42AB42AB42AB42AB44BB48CBCADC410
:103FA300EDC40DC5CDC46CB42BAC0AAC0AAC2AACC1
:103FB3000AB42AB44BBCADC4CDC4EEC4EECC0ECD12
:103FC300FFFFFFFFFFFFFFFFFFFFFFFF5AFFD3D5F9
:103FD3006FDD8FDD90DDB1DDF2E513E634EE75F6CE
:103FE30075EE34EEF2E590DD6FDD6FDD90E5B1E562
:103FF300D1EDB0D570DD8BCC2ABCC87A0018057220
:10400300068BE68A48938893078B6572C3592149C7
:10401300E03800310029012941310131E0404259A2
:1040230082610372A58A479B479BE5928382427A0A
:10403300A49225A3A9AB434120204382A7BB09BC7B
:104043002ABC09BC2ABC8BCC6BCC2ABCE9BBC8B349
:10405300E8B3C8ABC8B3C8B3C8B3A7AB87AB67AB48
:1040630088ABC9B32ABC8CC48CC4ACC40ED50ED5E2
:10407300CDCC0ED5CCC48FDD4ED58CC48DC449A315
:104083006A9B0CB4CBB3CBBB6AB3E579E148202878
:1040930040204241E5498762E96AA862675A475A64
:1040A300A451055A055A0462456AE682EAAB0ECD6D
:1040B300ADBCCAA3E68A43722272647AC58AC582FA
:1040C300058B2693679B879B879B679B879BA8A3EF
:1040D300E9AB09B42AB44AB44BBC6BBC8CBCADC4C9
:1040E300CCBCEDC4CDC46CBC4BB42AB42AB42AB442
:1040F3004BBC4BB46BBCACC4ADC4CEC4EECC0FCD87
:10410300FFFFFFFFFFFFFFFFFFFFFFFF19F7D3DDF8
:10411300D1E5D1E5D1E5D1E512E633E654EE75EE0E
:1041230075EE54EEF2E590DD6FDD90E5B1E590E5D7
:1041330090E56FD5EECC2BC42ABC2A836128E469B1
:10414300078BE682C682A67A246AA25141410139CD
:104153000131423122298010A018C120A028E1405A
:104163006259E369E78A89A3C9ABA8AB679BE58A70
:10417300E58AC49AA9ABC5594020E37126ABE9BBD4
:1041830009BCE8B3E8B309BC29BCE8B3A8B3A7B337
:1041930009B4C8ABA7ABE8B3E8B3A7AB67AB67ABEE
:1041A300A8B3E8B32ABC8CC4CCCCEDCC2ED50ECDB1
:1041B3002ED58FDD0DCDECC40ED5ADCC69ABA37977
:1041C300ABA351DD92E56DC46682E148C13840205E
:1041D30060282341065A4762886A676AA45163517B
:1041E300466AC87A456AA67A689BEAABACC48CC4B3
:1041F300EAABC5826372E58A068BC58AE58A0693B4
:104203004693679B879BA8A3C8A3C9ABE9AB2AB412
:10421300E9B309B42AB42AB44ABC6BBC8BBC8CBCCA
:10422300EDC4EDC4ACBC4BB42AB42AB44AB44AB40A
:104233004BBC4BB44BBC8CBCADC4CDC4EEC40ECD97
:10424300FFFFFFFFFFFFFFFFFFFFDEFFD8EE13E6D9
:10425300F1E5F1E5F1E5F2E513E633EE34E634EEAC
:1042630055EE74EE33EED1E58FDDB0E5B1ED91E5BA
:104273004FE54FD5CDC42BC48CCC4A8B61284672F5
:10428300699B4893078B446A825162496241223990
:104293000229C120811040086110601040180239C2
:1042A3004249C359857A079368A3A8ABC9ABC8A38E
:1042B300689B05A3A8B3E5616028E371E49AC8B3DA
:1042C3004ABC09BCE8B3E9B3E8B3E8B3C8B3C8B3BD
:1042D300E8B3A7ABA7ABE8B309BCC8B387AB67AB7D
:1042E300C8B3E9BB09BC6BC48BC4CCC40ECD0ECD23
:1042F300B0E56FDD2ECDCCC40DCDEABB6171A060FE
:10430300AAAB51E510D509930251A038E238201821
:1043130080304349C559476A266A8359C461467A3E
:10432300046AA67AC68289A3EAB34BBCCCCCE9ABB8
:1043330067934793068B058B269326932793479B77
:10434300679B879B879B88A3C8A3C8A3A8A3C8A36D
:10435300C8ABE8ABE9AB09AC2AB46BBCACC4CDC405
:10436300EDC4EDC4ACBC4BB42BB42AB42AB42AB408
:104373000AB42AB44BBCACC4ADC4CDC4CEC4EECCD9
:10438300FFFFFFFFFFFFFFFFFFFF9DFF76E613EE3B
:1043930012E612E6F1E5F1E512E633E634E634EE31
:1043A30055EE54EE54EEF2EDB0E5B0E5B1EDB1E506
:1043B30090ED90DD0FD56CD46BC4C87A0018E46916
:1043C300699B4893C782036A414901390131C1207E
:1043D3006010000020086110C320C2204010C220DA
:1043E300213900398151857A88A32AB46BBC4BBC2F
:1043F3002BACC8BBE9BBC4616028447AA49266AB0A
:1044030009BC09BCE9B3C8B3C8B3C8B3A8B3C8B33C
:10441300C8ABC8ABC8B3C8B3E8B3E8B3A7B367AB1B
:10442300C8BB09BC2ABC8BC4EDCC2ED58FDD8FDD78
:104433004ED5EDC40DC5CCBC4BBC079B4171217956
:1044430008A38ECC098BE140C1388130402060281D
:104453002241A4512662676A62514151657A03720F
:10446300068BE68A279BEAB34BBC6BC46BBCC8A321
:104473006793679B679B679B88A3679B2793279398
:104483002693479B479B679BA8A3A8A3A8A3C9AB55
:1044930009B44AB46ABC6BBC8BBCACC4ACC4ACBC82
:1044A300CDC4EDC4CEC4ADC48CBC4BBC2AB42AB4B9
:1044B3004AB44BB44BBC6BBC6CBCCDC40ECD2FD536
:1044C300FFFFFFFFFFFFFFFFFFFF7CFF35E613EE5C
:1044D30032EE32EEF2E5F2DD12E633EE54EE75F62D
:1044E30096EE34EE13E6D1E590E590E5B1E591E57E
:1044F3004FE52ED5CECC6BD42AC4E97A2020A36114
:10450300CBAB699B078BA67A046262410129C12068
:104513004000200000080008A320A6410429A110A0
:10452300C020E030A251857A069368A30AB48CC4F4
:10453300CEBCCCDC8CD4056AC138E78A059B46A384
:1045430009BC2ABC29BCE9BBE8B3C8B3C8B3C8B328
:10455300E8B329BC29BCC8B3A7ABA7AB87AB66AB91
:10456300C8BB09BC4AC4CCCC4EDD6FDD6FD50ECDC4
:10457300CCC4EDC40DC58AB4879B89B38AC346A254
:10458300E7AA458A014940204120612881308130D2
:104593004241E551A872055A8251A261A161848208
:1045A30088A367A30AB44BC48CC44ABC679B879B8C
:1045B300C8A3C8A3C8A388A326932693479B06939F
:1045C300E58A479B879B879BA8A3A8A3C8A32AB474
:1045D3006ABC8BBC8BBC6BBC8BBCACBCCCC4CCC42E
:1045E300EDC40ECD0ECDEECCAEC46CBC4BBC4BBCFF
:1045F3002AB44BBC6BBC8CBCADC4EEC40FCD2FCD69
:10460300FFFFFFFFFFFFFFFFFFFF1AF735E654F63B
:1046130033EEF2E5D1E5F2E512E654EE74EE75EE13
:1046230074EE54EE33EEF2E5B1E5B0E5D1EDD0ED45
:1046330070E52DDDEBD449C44BC4099B4040436175
:10464300879B0BB4499BE78A64726141E128210887
:104653004108410820006000811060102329811067
:10466300222901316151A582689BCA9B8DBCADCCC7
:104673000ECD0FC551CDC4594049679B469B66A3D8
:10468300E8B329BC29BCE9BBE8BBA8B387AB87ABBC
:10469300A8B3E9BB08BCE7B3E7B3A7B387ABA7B33A
:1046A300E9BB2AC46BC4CCCC2ED50DCDCCC40DC56F
:1046B3000FD54FD58BB4ABB44ECD0FD56ED409B354
:1046C3000B93A130A020C0284028A040A03822414D
:1046D300C541275A056282598169A1710382C69A2D
:1046E300C9B34BBCACCC6BC4E9B3A7A387A3679B8B
:1046F300469B679B679B479B679B679B4793479338
:10470300889B889BA89BA8A3A89BA8A32AB4ACC4F6
:104713008BBC8BBC8BBC8CBCACBCCDC4EEC40ECDF3
:104723002FCD2FCD2FCD0ECD0ECDCDC48CBC8CBCBB
:104733006CBC2BB42BB46BBCACC4ADC4CDC40ECD1C
:10474300FFFFFFFFFFFFFFFFFFFF1AEF35E675F6E1
:1047530054EEF2E5D2DDD1E512E633EE54EE54E643
:1047630074EE54EE54EE33EE12EEF2EDB1E570DD7D
:10477300B1E52ED5CACC48C46BCCABABA040E24864
:10478300269368A30893AAA306838149C12020081E
:104793004108821024212742032140100000C11840
:1047A300A018E03061512372278B2BA48DBCADC4BC
:1047B300EDCCB1DDD0C4E040E361C9A367A346A358
:1047C300A7AB29BC4AC409BCE8BBA8B3A7B3C8B309
:1047D300E9BB09BCE8B3A7ABC7B3C7B3C8BBE8BB66
:1047E3004ABC4ABCCDCC4ED5EDCCEDC42ECD4FD575
:1047F3006FD5ACBCACC46FE570E5AED4CCBBC99A85
:10480300A1384020223140182028E2404349A449DE
:10481300C5496762056A8161A1712382A59227A3B5
:104823004BBC4BBC4BBCE9B387A3469B2693059378
:104833004693679B479B879BC9ABE9ABA8A3A8A3F8
:10484300C9A3C9A3A8A3A8A32AB4ACC4CCC46BBCF2
:1048530009AC4AB48BBCCCC4EDC40ECD0ECD0FCD88
:104863000FCD2FCD0FCD0FCD0FCDEEC48DBC6CBCB6
:104873002BAC4BB46BBC8CC4ACC4CDCC0ECD2FD500
:10488300FFFFFFFFFFFFFFFFFFFF1AEF35DE95FE80
:1048930074EE13E6D2E5F2E512E633E654EE75EE76
:1048A30096EE95EE75EE54EE33EE13EED2E5B1DDF2
:1048B300F2E54EDDEBD489D46BCC4DBC024920200C
:1048C3008582279B289B68A3847AA25180200008B5
:1048D3000000518C99CE07424431A1206010232956
:1048E3008431C0286151C57AEA9B8DAC8DB44FD514
:1048F30090DDB2DD2DACC040078B0AB4059387ABC6
:1049030009BC29BC09BC29BC4AC4E8BBA7B309BC80
:1049130009BC2AC429BCE8B308BC29BC09BC29C406
:10492300ACC46BBCCDCC0ECDEDC4EECC4FD54FD5C6
:10493300ACB4C8A32BC4EFE48FDC4BABC669C24055
:104943006028402043416028E2404451C55106524B
:10495300476A256AC369237AC59226A367AB2AC42B
:104963002ABCE9B3A8AB67A3479B469B2693059351
:104973000593679BC8A3C9ABA8A3889BA89BC9A39E
:10498300C8A3A8A30AAC8CBCCCC48BBC2AB42AB4DD
:104993006ABC8BBCACBCCCC4CDC4EEC4EEC40FCDDE
:1049A30050D550D52FCD2FCD2FCD2FCDEEC4CEC486
:1049B3008DBCADBCADC48CC48CC4CDCC2FD54FD570
:1049C300FFFFFFFFFFFFFFFFFFFF1AEF36DE96F645
:1049D30095F613E6F2E513E633EE34EE75EE95EE57
:1049E300B6EE96EE96EE75EE34E613E613E613E6B0
:1049F300B1D54ED50CDDCADC8ACCEECCC45900103F
:104A03000472AAAB069B269BE58A446A22392018C6
:104A13000008AA5A30844429242903292008232181
:104A2300A439E0308151C67AEA9B8DACADB4CEC4D3
:104A3300ADC451DDC882C040A9A30AB4469B67AB8D
:104A4300E9B38BC48BC42ABC09BCC8B3A8B32AC4BA
:104A53004BC46AC44AC449C44AC44AC44AC46BC4A2
:104A6300CCCCECCCEDCC0ED52ED54FDD0FD5ADC4D3
:104A7300A9AB28A369AB6AAB6882E3480020212075
:104A830084418020C238A13803496451265A6762A1
:104A93002572457A6482E692C9B34AC42AC409BC22
:104AA300269BE592E592E59206932693069305935A
:104AB300E58A2693479B679B889BA89BA89BC9A3D2
:104AC3000AAC8CBCCDC4ACC46BBC4BBC4BBC6BBC88
:104AD3008BBC8BBCACBCACBCCDC40EC54FCD71D5AF
:104AE30091DD91D571D571D591DD91DD91D571D5DB
:104AF3000FC5CEC48CBC4BB46CBCADC4EECC0FCDD7
:104B0300FFFFFFFFFFFFFFFFFFFF3BEF56E696F6BA
:104B130095F633E6F3E533EE54EE54EE75EE96F682
:104B230096EE96EE96EE96EE75EE55EE34EE34E690
:104B3300F2DD90DD6EE52CE5AACC2ED5A772001030
:104B4300E148CBAB0693A8ABA8AB246AC459C130E8
:104B5300000840108110232185398641000843292C
:104B630084396241036268932BA48DAC0FC5EEC4F4
:104B73008DC44DBC0151036A2BB487A366A346A31E
:104B8300E9B34ABC4AC46AC429BC67AB67AB4AC42D
:104B9300CCD48BCC8ACC8BCC8BCC6AC48BC4EDD4D9
:104BA300ECCCECD42DD52EDD0ED5EED4ADCC6CC42F
:104BB3008BC36BB387826349602000106118822026
:104BC3000129A028E238234964510662676A676AAB
:104BD300E3714482279BC9B3E9BBC8B367ABE492D3
:104BE300A38AA48AE592469B67A3A8A3A8A3A8A324
:104BF300A8A3C9A3C9A3C9A30AAC2BB46BB4ACBC07
:104C0300CDC40ECD0ECDACC48BBC6BBC6BBC8BBC0E
:104C13004AB46AB4ACBCCDC40ECD50CD91D5D2DD6F
:104C230071D571D5B2DDD2DDD2DDD2DDB2DD91D564
:104C330071CDEFC48DBC6CBC6CBC8DC4CEC40FCD28
:104C4300FFFFFFFFFFFFFFFFFFFF7CF798E676EE16
:104C530054EE13E613E634EE54EE54EE75EE96EE90
:104C630076EE75EE75EE96EE96EE75EE55EE34E64F
:104C730012E6B1E570E54EDD0CD56ED5EB9BC23087
:104C830003492993689B069368A3C78A246AA251A0
:104C93000010601003218531C641A22040108431E9
:104CA3002231C351C67AEAA34BACADB450CDEFCC9D
:104CB300EFD4457A215969A3A9AB66A366A346A39A
:104CC300E9B36BC46BC44ABC2ABC09BC09BC2AC483
:104CD300ECD4ABCCABCCECD4ECD4ABCCCCCC2ED591
:104CE3002DD5CBCC0DD570DDEECC4CB4ABA3088B5E
:104CF3008581E3582028200820004008A120812036
:104D0300C028C130E2408559055A466A456A457252
:104D1300E69247A34BC48CCCA8B3E59AE492C49221
:104D23000593269B87A3A8ABC9ABE9AB0AB40AB426
:104D33002AB44BB46BBC6BB46CBC8CBCEDC44FD508
:104D43006FD54FD50ECDCDC48CBC2AB409AC4ABCAB
:104D53006ABC8BBCCCC40ECD4FCD70D591D5B2D52A
:104D6300B2DDB2DDD3DDF3E5F3E5F3E5F3E5D3DD62
:104D7300F3DD91D550CD0FCDCDC48CBCADC40FCDDB
:104D8300FFFFFFFFFFFFFFFFFFFFBEFFF9F676E622
:104D930034EE13E634EE54F654F654EE75EE75EE37
:104DA30096F655EE54EE55EE75EE75EE54EE34E68A
:104DB30052EEF3ED92E570E56EDD4DD5CEC4635151
:104DC300813083510BAC689B8AABABAB657A0262D3
:104DD300E2300008E220064244316018E220432911
:104DE3008341246248938CBCEEBC8DB4AEBC0FD51A
:104DF300AAABA048257A0BB4469B259B0493E8B342
:104E03002ABC8BC4CCCCACCC4ABC4AC48BCCEDD42E
:104E1300EDD4ACD4CBD4ECD40DD5CCD4EDCCEDCCFB
:104E2300EDCC0ECD70D5AEBCC77A42498030402060
:104E33000018001000102010A2180331A1288028A8
:104E43000131024164512662866A4562647244827A
:104E530088AB4BC48CCCC9B3059B0593059BC4920B
:104E6300C48A059366A3A8ABC8ABE9AB2BB42BB438
:104E73006BBC6BBC6BBCACBC0ECD4FD590DDD1DD38
:104E8300B0DDB0E50ECD2AB409AC4AB44BBC4ABC84
:104E93008BC4ABC4EDC42FCD90D5D1DDF2DDF3DDF2
:104EA30035EE14E634E635EE34E655EE55EE55EEC2
:104EB30014DEF3DDB2DD30D5CDC48CBCADBCEECC9D
:104EC300FFFFFEFFFFFFFFFFFFFFFFFF3BFF56E676
:104ED30034EE34EE54EE75F654F655EE75EE76EE8A
:104EE30055EE54EE55EE75F655EE54EE34EE33E6CC
:104EF30011EEF3EDB3E5B2E5AFDD2DCD4FD5E471A2
:104F030021200020C682AAA32CBC8AA32793427225
:104F1300C5514018E220C541C641A12002294321C1
:104F23008349C77AEAAB4BB4EDBC0FC54CBC4CC448
:104F33002059247AAAAB48A3269B249B259B09BC12
:104F4300ABC4ACCCACCC4AC44ABCACCC0EDD0EDD9D
:104F53002DDDECD4CBD4CBD4CCD4EDD4EDD4EDCC6B
:104F6300EEC42FCD2CAC666AE2382018000800107E
:104F73006100410021080110E4408651A13001394C
:104F8300624183516772466A655A8462C9AB68B3EA
:104F93002AC48BCC2ABCA8AB88A3A8AB87AB87ABAE
:104FA300A7ABE8B329B409B40AB40AB40BB4EAB39F
:104FB3002AB46BBCACBCCDC40ECD0ECD4FCDB0DD91
:104FC300B0DD2ECD4BB409AC6BB48BBC6BBC6BBCEE
:104FD300ABC4CCC42ECD90D5D1DDF3E513DE13DE07
:104FE300F4E5D3DDF4E514E614E635E635E6F4DD61
:104FF300F4DDF4DDB2DD30CDCEC4CEC40ECD2FD57D
:10500300FFFFFFFFFFFFFFFFFFFFFFFFBDFFD9E62E
:1050130035E655EE55EE75F655EE55EE75F674EE2E
:1050230054EE33EE33EE54F654F634EE13EE13EE41
:10503300D2E5B1E590DDF2ED70DD4FD550D5489363
:10504300C11860188028A8822DBC0BB4479BC4826A
:10505300C259A0386341CA62A639C118E020613938
:10506300857A0BA46DAC2CAC6DBC8DCC4BD4239A40
:1050730043824BCC4BC446A3E59A059B059BC8B31F
:105083006AC4ABCC8BCC4ABC4ABC0DD58FE52ED5BC
:105093000ED52EDD2DDD8AC4EBD40CD5ECC40DCD9D
:1050A3002EC5898B055A401800082108000000000E
:1050B30020086118C220812002312241A030844996
:1050C300266A6772046AE3692372279BCCCCACCC53
:1050D3008BC409B4C7ABE7AB08B408B408B409B4CC
:1050E3004ABC8BBCACC4CCC4CCC4CDC4ACC46CC4AF
:1050F3006BB46BB48BBCACBCCDC42FCDB1DDD1DDF7
:10510300EDCC6BBC6BBC4BB48CBCCDC48CBC8CBC2D
:10511300EDC40EC54FCD91D5B1DDB1DD91D591D59E
:10512300F3DDF4DD14DE35E635E614E6F4DDD3DD38
:10513300D2DD50CDEEC4ADC4CDC4EECC2ECD4FD513
:10514300FFFFFFFFFFFFFFFFFFFFFFFFBDFF3AF77B
:1051530055EE55EE75EE75EE55EE55EE75EE74EEB5
:1051630054F6F2E513E634EE13EE33EE34EEF2E5E5
:10517300F2EDF2EDD1E590E590E5B0E52FD52BAC5E
:105183004339233900106020A7722CACEBAB089392
:10519300247200494028A120201040100039E3590F
:1051A30069932CAC8EB42CAC899BA58AC69A639A5E
:1051B30009BC8BCC4AC487ABC492E49A46A3E8BB30
:1051C3006BC4ABCC8BC48BC4ACCC0DD56FDD4ED5CF
:1051D3004FDD4EDD6EE5ECD4ECCCECCCEDC4ADBCD8
:1051E30048838249A020000820080008000081109D
:1051F300E741A21860188028E1386349A351266269
:105203004672667AA682E269437A6BC40ED5CCCC29
:10521300E9B3E8B3E8B308B428B428B449BC6BC411
:105223008BC4ACC4CCC4EDC40DCD2ED50ED5EDCC02
:10523300EDCC8CBC8CBCEDC46FD5B0DD6FD5ADBCF3
:105243006BBC6BBCCCC4EDCC0ECD4ED50ECD2ED5E8
:105253006FD54FD54FD570D570D591D5D2DDF3E548
:1052630035E635E655EE55EE35E6F4DDB3D592D5A4
:1052730030C5EFC4ADBCADC4CDC40ECD2FD54FD515
:10528300FFFFFFFFFFFFFFFFFFFFFFFFFEFF9DFF8E
:1052930076EE14E654EE34EE14E655EE54EE54EE88
:1052A30054F6F2E5F2E513EEF2E513EE33EEF2E532
:1052B300F2E5F2EDB0E54FDD6FDD90E52ED5CDC41F
:1052C300A551C22860108010601022396772A88A25
:1052D300E4798361603060208018A0288259868237
:1052E300498B8A9308836251E040A16127A3A8BB3D
:1052F30009BCC8B3C8B3E8B366A387ABC7B3E8B305
:105303008BC4CCCCACCCCCCC2ED54EDD6FDD6FDDDD
:105313006FDD2ED54EDD0DD5CCCC8BBC6CAC89931B
:105323004239401840180008000020086531A95A86
:10533300E739C63943310239835104626572E78222
:10534300089385820793C58A68A3EDD48BC44BBCAD
:105353004ABC6BBC6AC44ABC29B409B46ABCACCCB1
:10536300ECC4EDCCEDC4CDC4EDC42ECD2FD52FD5DB
:105373002ED52ECD2ECD0ECDEDC4ADBC8CB44BAC05
:10538300ACBCACC4EDCC0ECD0ECD4FD54FD590DD1E
:1053930090DDB1DDD1DDD2DDD2DDD2DDD3DDF3E5CC
:1053A30014E635E635E634E614DEF3DDB3D592CD07
:1053B30030C50FC5EEC4EDC40ECD2FCD4FD54FCDA7
:1053C300FFFFFFFFFFFFFFFFFFFFFFFFFEFFDEFF0C
:1053D30097EE14DE54EE33E613E654EE34E654EE61
:1053E30033EE33EE13E6F2E513EE13EE13E6F3E5D5
:1053F300D1E5D1E54FD58FE54EDD2ED590E50DCD29
:105403002662802061180421C21800082018002099
:10541300E158C5692341E228C120E1302251626984
:105423006251C040E0406149E6820AAC0AB4A8ABCD
:10543300C8B3C8B366A387ABC7B329BCE8B3E8B3A3
:105443008BC4EDD4CCCCCDCC2ED56FDD90E56FDD08
:105453008FDD2ED50DD5ECCC8BBCA893277BE351E8
:1054630081204018A11840084010C21823290221A6
:10547300E22043316339A3492462C682A9A3EAAB7C
:10548300CAB368A367A3C9B309BC09B42AB46BBC84
:10549300ACC4ACC4CCC4ABC48BC4ABC4ECCC0DD5D2
:1054A3000DCD2DCD2ECD0DCDEEC40EC50ECD0FCD14
:1054B3004FD56FD5B1DDB1DD70D54FD54FCD2FCDE4
:1054C3000ECDCDC4ADC4ACBCADBCEDC40ECD4FD57B
:1054D30090D590DDB1DDD2DDD2DD13E634E655EEB5
:1054E30035E655EE55E614E614E614E6F4DDD3DDB1
:1054F300D2D591D550CD2FCD2FCD70D590D590D578
:10550300FFFFFFFFFFFFFFFFFFFFFFFFFFFFFEFFA9
:10551300B8EE34DE74EE53EE12E654EE33E654EE98
:1055230033EE54EE13EEF2E513E6F3E5F2E5F3E5BD
:1055330012E690DD4FDDB0E54EDD0DD58FE56FDD75
:10554300CB7BE1280010A328874145312329432938
:1055530080380141A128E128E12001318351257AD6
:1055630045724572899B0BAC2BAC679B2693C8ABEA
:10557300C7B3E8B3A7ABA7ABE8B349C429BC29BCFD
:10558300ABC4ACCCACCCCCCCEDCC4FDDB0E54FD583
:105593008FDD6FDD0DCD8BBCC9A3A572E351C02098
:1055A3008118A2182329E220032963316339E128F2
:1055B3000129A341A249A6720AAC2AB46BBCCCCC84
:1055C3004BC44BC4E9BB09BC4ABC4ABCACC48BBC8E
:1055D300EDCCEDCC0ED50ED50ED50DD50DD5ECCC31
:1055E3000CCD2DCD4ED56FD56FD54FD52FCD2FCD1E
:1055F3004FD54FD570D5B1DDD2DDF2E513E6F2E537
:10560300F2E5D1DD90DD70D54FD52FCD2FCD2FCD48
:1056130090D590D591D5B1D5D2DDF3DD14E614E65E
:1056230055EE55EE55E614E614DE14E614E6F4DD05
:10563300F3DDB2D550CD0ECD0FCD4FD590D591D54D
:10564300FFFFFFFFFFFFFFFFFFFFFFFFFFFFFFFF67
:10565300F9EE55DE54E633EEF2E533EE33E633E6A8
:1056630033EE13EE13EE13EED2E5D2E5F2E5D2E517
:1056730013EE90DD70DD6FDD4FDD4EDD0ED5B0ED49
:105683008D948339411801184639A541A439E43969
:105693008672C77A666A265A465A297BAB9BCBAB7E
:1056A3002CB44CB4ADC409AC879B2593669BE9B37A
:1056B30086ABC7B309BC4AC429BC4AC44AC48BCC11
:1056C300EDD4ACCCACC4EDCCEDCC2ED5B0E58FDDB8
:1056D3006ED56FDD0DCDE9AB078BE4596341E12056
:1056E3008531E220C118C120222901312131013144
:1056F3004141246269936CBC6BBC6BC40DD5CCCCAB
:105703008BCC8BCC8BCC6AC44AC46AC48BC4EDCC1F
:105713000DCD2ECD2ED52ED52ED50DD50DD50DD502
:105723000CCD0CCD0DD54ED58FDDB0E5B1DD90DDC3
:10573300B1DDD1DDD1DDB1DDB1DDB1DDF2DD13E60A
:10574300F2E513E612E633EE13EEF2E5F2E5F2E5E7
:10575300D1DDB1D591D591D5D2DD14E655EE75EEF7
:1057630035E635E614E614DE14E634E614E614DE14
:10577300F3DDB2D550CD0FC50EC52FCD50CD70CDB5
:10578300FFFFFFFFFFFFFFFFFFFFFFFFFFFFFFFF26
:105793005BFF76E633E612E6F1E512E633EE13E657
:1057A30013EEF2E5F2E5F3E5D2DDB2DDD2E5D2E5C3
:1057B300F2E5B1DD90DD2EDD4FE54FDDEDD46FE594
:1057C300F0BC0D940B6B0421442922298241087BF0
:1057D3000AAC4793857AE369246A488BA99B2BB467
:1057E3004BBCE9B3C8AB66A386A345A386A3C8B3E2
:1057F30009BC29BC6AC48BCC2ABC6AC48BCCACCC94
:105803002ED50DD5CDCCEDCC2ED56FDDD1E5D1E5A3
:105813006FD54EDDCDCC479B247262490231C22045
:10582300A118601080182129A3416241A351046289
:1058330047932AB4ACCCACCCACCCECD4EDD46BC495
:105843000DD56BC46AC44AC46AC48BC46BBC0DD582
:105853006FD56FD56FD54FD50ECDCDCCCCCCECCC91
:105863002CD50CD5ECCCEDD44EDD90DDD1E5F1E5B6
:10587300B1DDB1DDD1DDD2E5F2E5F2DDB2DDB2D5E8
:10588300B1D5D2DDB1DDD2DDD2DD91D5D2DDB1DD51
:10589300F2DD12E613E633E634E634E634E614E6E4
:1058A30035E635E635E635E655EE55E614E6F4DD40
:1058B300D2D591D530CD0EC50EC50FC54FCD70CD08
:1058C300FFFFFFFFFFFFFFFFFFFFFFFFFFFFFFFFE5
:1058D300BCFFD7EE33E632EE11EE12EE54EE13E6D2
:1058E30013E613E6D2E5B2DDF2E5D2DDB1DDF3E591
:1058F300D2E5F3ED90E570E590E54FDD2EDD0ED5B5
:1059030072E5A872E641231163196231A6726DC470
:1059130028B487ABE59A2282438288A3679B88A336
:10592300C8AB66A3259B45A3C7B3C7B3C8B3E8B346
