:101128007777772E646F666C79652E6E65740049E3
:10113800204C4F5645204D59204A4F422000C9CFD8
:10114800BAA3C0CAD2EBB5E7D7D3BFC6BCBCD3D00D
:10115800CFDEB9ABCBBE00D7A8D2B5BCBCCAF5D6DA
:10116800A7B3D6C2DBCCB300D7A8D2B5BFAAB7A263
:10117800B0E5B9A4BFD8B0E50031323334353637DD
:10118800383930006162636465666768696A6B6CE8
:101198006D6E6F707169737475767778797A00609F
:1011A8002C2E2F3C3E273B3A5B5D7B7D7C3F2928DC
:0911B8002D3D2B2A265E252400A2
:100E0B00120F29E4FFFE1213C57FFF7E001213C5DC
:100E1B007F007EFF1213C5120BB47F007EFF1213EF
:100E2B00C5750E01750F407510F8751100E4FBFACE
:100E3B007DF0FCFFFE1213207F007EFF1213C57B9B
:100E4B00FF7A117928E4F50FF51074FFF511F512FF
:100E5B007D287C007F287E001211C17BFF7A1179DF
:100E6B0037E4F50FF5107511F8F5127D3CFC7F2872
:100E7B00FE1211C17BFF7A117946E4F50FF510755F
:100E8B0011F8F5127D50FC7F0AFE1211C17BFF7A1F
:100E9B0011795F750F077510E07511F87512007DEC
:100EAB00647C007F287E001211C17BFF7A11797060
:100EBB00750F0075101F7511F87512007D787C0089
:100ECB007F287E001211C17BFF7A117981750F008B
:100EDB0075101F7511F87512007D8C7C007F287EB4
:100EEB00001211C17BFF7A11798C750F0075101FE1
:100EFB007511F87512007DA07C00E4FFFE1211C184
:100F0B007BFF7A1179A7750F0075101F7511F87596
:0E0F1B0012007DB47C00E4FFFE1211C180FEC6
:1000030000000000000000000000000000000000ED
:1000130000000000000000000000000000000000DD
:1000230000000000000000000000000000000000CD
:1000330000000000000000000000000000000000BD
:10021300000000101010101010001010000000005B
:10022300000000242424000000000000000000005F
:1002330000000024247E2424247E242400000000C3
:10024300000000107C90907C12127C1000000000D3
:100253000000000062640810204C8C0000000000C5
:1002630000000000182420508A844A300000000057
:10027300000000101020000000000000000000003B
:10028300000008102020202020202010080000005B
:1002930000002010080808080808081020000000C3
:1002A3000000000000105438385410000000000013
:1002B300000000000010107C10100000000000007F
:1002C30000000000000000000000101020000000EB
:1002D300000000000000007C00000000000000009F
:1002E30000000000000000000000001000000000FB
:1002F300000000000002040810204000000000007D
:100303000000003844444C54644444380000000066
:100313000000001030101010101010380000000002
:1003230000000038440404081020407C0000000052
:100333000000007C04081038040404780000000066
:1003430000000008182848487C080808000000003E
:100353000000007C40404078040404780000000062
:100363000000003C40404078444444380000000012
:100373000000007C0404081020202020000000005E
:10038300000000384444443844444438000000002A
:10039300000000384444443C0404043800000000D6
:1003A300000000000000001000001000000000002A
:1003B30000000000000000001000101020000000EA
:1003C30000000000000408102010080400000000D2
:1003D300000000000000007C007C00000000000022
:1003E3000000000000201008040810200000000096
:1003F30000003844440408101000101000000000EE
:10040300000000000038445C545C403C00000000E5
:10041300000018244242427E424242420000000051
:1004230000007C4242427C424242427C0000000087
:1004330000003C42404040404040423C000000003D
:1004430000007C42424242424242427C00000000A1
:1004530000007E40404078404040407E0000000065
:1004630000007E4040407840404040400000000093
:1004730000003C4240405E424242423C00000000D9
:100483000000424242427E42424242420000000099
:100493000000381010101010101010380000000069
:1004A30000001C080808080808084830000000007D
:1004B300000042444850606050484442000000003D
:1004C30000004040404040404040407E000000006B
:1004D30000008282C6C6AAAA92928282000000000D
:1004E300000042626252524A4A46464200000000FD
:1004F30000003C42424242424242423C0000000071
:1005030000007C424242427C4040404000000000E8
:1005130000003C424242424242424A3C0E0000003A
:1005230000007C424242427C5048444200000000AA
:1005330000003C4240403C020202423C00000000FA
:1005430000007C101010101010101010000000009C
:1005530000004242424242424242423C000000000A
:1005630000004444444428282810101000000000D0
:1005730000008282828254545428282800000000FC
:1005830000004242241818182424424200000000AC
:1005930000004444444428281010101000000000B8
:1005A30000007E02020408102040407E000000008C
:1005B30000003820202020202020203800000000C8
:1005C30000000000000040201008040200000000AA
:1005D30000001C04040404040404041C00000000C0
:1005E300000000001028440000000000000000008C
:1005F300000000000000000000000000FF000000F9
:1006030000000010100800000000000000000000BF
:10061300000000000078043C4444443A0000000019
:1006230000004040405C62424242625C00000000C5
:1006330000000000003C42404040423C00000000FB
:1006430000000202023A46424242463A00000000DB
:1006530000000000003C42427E40423C000000009B
:1006630000000E1010103C101010101000000000BD
:1006730000000000003E424242423E02023C0000B3
:1006830000004040405C624242424242000000009F
:100693000000000800080808080808080000000017
:1006A30000000004000404040404040444380000AB
:1006B300000040404042444850684442000000006B
:1006C3000000101010101010101010100000000087
:1006D3000000000000EC92929292929200000000BF
:1006E30000000000007C42424242424200000000FF
:1006F30000000000003C42424242423C0000000035
:1007030000000000005C62424242625C4040000024
:1007130000000000003A46424242463A020200000C
:1007230000000000005C62404040404000000000C8
:1007330000000000003C42403C02423C000000003C
:1007430000000020207820202020221C0000000030
:1007530000000000004242424242423E00000000CC
:100763000000000000424242424224180000000000
:1007730000000000008282829292AA4400000000DE
:1007830000000000004242241824424200000000FE
:10079300000000000042424242423E02023C00008E
:1007A30000000000007E02041820407E00000000CC
:1007B3000000081010102040201010100800000046
:1007C3000010101010101010101010101010100046
:1007D3000000201010100804081010102000000062
:1007E3000000000000002254880000000000000008
:1007F30000000000000000000000000000000000F6
:10080300C9CF000000010001000100010001000147
:10081300F801000100010001000100010001047F53
:10082300FE0000BAA3002100110011FE020097F898
:100833005288524812082FFE2288E248220823FEDB
:10084300200820282010C0CA001000087C7E4442E3
:100853004442447E7C424442447E44407C48444477
:10086300445A84628441140208D2EB00000023FC42
:100873001104108800500020F0D81326102011FC1A
:10088300102014201BFE102000200020B5E70001DB
:1008930000010001003FF8210821083FF821082149
:1008A3000821083FF821080102010200FE0000D7D9
:1008B300D30000003FF00020004000800100010051
:1008C3000104FFFE01000100010001000100050019
:1008D3000200BFC6000608788808480848FE0818C2
:1008E300881C482A48280E48788B88080808080876
:1008F3000808080808BCBC00102010201020FDFECA
:100903001020142019FC3108D0881090106010605A
:100913001090110E56042000D3D000010001007F77
:10092300FE020004000FF0181028104FF088100882
:10093300100FF00810089008700820CFDE000000A8
:10094300FBF8920893F8A208A20893F88A808A48D1
:10095300AA50922082208210828E83048200B9AB37
:10096300000000044006400440082008101018222C
:100973000E430402000420081011F83F1810100061
:1009830000CBBE0000003FFC000400047FE4000431
:1009930000043FC4204420443FC4204420040014E6
:1009A30000080000D7A800010001003FF802000280
:1009B30000FFFE040008200FF00020004002800129
:1009C30000008000400000D2B50004400440044011
:1009D30004444446244C244814501C5014600440DE
:1009E30004400444FFFE00000000BFAA0000007F93
:1009F300FE0420042004200420FFFE04200420041D
:100A030020082008201020202040200000B7A2004A
:100A130002002240223022107FFE2400040007E05F
:100A23000C200A200A20114020804160861C1808EF
:100A3300B0E500101C11E011001100FD0011FC399C
:100A430084354855485230921012301448108E1194
:100A5300040000B9A40000003FFC010001000100F4
:100A6300010001000100010001000100010001007B
:100A7300FFFE00000000BFD800100010201010FD82
:100A8300FE11041050148C19043000D1FC102010F6
:100A9300201020102053FE2000C9E800400021F060
:100AA3003110211001100110E20E25F82108210850
:100AB3002090209028603090230E0C04B1B80008D9
:100AC300000FF0082014202240418002400C3030F7
:100AD3001EDFF411101FF0111011101FF01010BCC5
:100AE300BC00102010201020FDFE1020142019FC43
:100AF3003108D0881090106010601090110E5604C9
:100B03002000CAF5000100012001100100FFFE01D1
:100B13000003800540052009101118210EC10401AE
:100B23000001000000D6A7000100010001007FFEC4
:100B3300010001001FF80810042004200240018076
:100B430002400C30700E0004B3D600104010401366
:100B5300FCFC40104017FE1410181037FED0101183
:100B63001010D01090101050502020C2DB004040D5
:100B7300204030A0209001080206E504211021380E
:100B830021C0210025002904310420FC0000CCB33E
:100B930000000011FC100010001000FC0013FE10F8
:100BA30040106010801C883104C27E07C602040016
:010BB3000041
:0413C5008E088F09F6
:1013C90075310175328FE4FBFA7DEFFCFFFE1212D5
:1013D900D9E4F50AF50BE4F50CF50DAF09AE0812E1
:1013E9001442050DE50D7002050CC394F0E50C944B
:1013F9000040E8050BE50B7002050AC39490E50A65
:04140900940140D238
:01140D0022BC
:06124A008B218D828C83D4
:0B125000EF24071212C6E4F526F52774
:10125B00AF21EF3395E0FEEFC4F8540FC868FFEEF3
:10126B00C454F048FEE5272FFFE5263EFE74032FFE
:10127B00F58274003EF583E493F52AE4F528F5290D
:10128B00E52A30E706AF23AE228004AF25AE241249
:10129B001442E52A25E0F52A0529E52970020528DF
:0912AB00C39408E528940040D723
:1012B4000527E52770020526C39410E5269400400F
:0112C4009693
:0112C5002206
:0F145200851922851A23851B24851C2502124A21
:0A1046008B188A19891A8D828C8399
:10105000EF240F1212C6E4F523F524AB18AA19A940
:101060001A121373FF90080375F023E5241213B9C5
:10107000E52375F023A42583F583E4936F600302D1
:10108000111390000112138CFF90080475F023E5F2
:10109000241213B9E52375F023A42583F583E49383
:0710A0006F7070F51FF520D1
:1010A70090080675F023E5241213B9E52375F0239C
:1010B700A42583F583E5822520F582E583351FF591
:1010C70083E493752500F526E4F521F522E526301E
:1010D700E706AF1CAE1B8004AF1EAE1D121442E51F
:1010E7002625E0F526E52533F5250522E5227002BC
:0B10F7000521C39408E521940040D2BD
:101102000520E5207002051FC39420E51F940040CE
:10111200940524E52470020523C39440E52394003A
:05112200500302105B08
:0111270022A5
:0E11C1008E088F098C0A8D0B8B0C8A0D890EFF
:1011CF00E4F513AB0CAA0DA90E121373606CC39444
:1011DF0080E51375F008502FA42509FFE50835F0B9
:1011EF00FE121373FB850F1985101A85111B8512BB
:1011FF001CAD0BAC0A1214527401250EF50EE4351A
:10120F000DF50D051380BCA42509FFE50835F0FE8B
:10121F00AB0CAA0DA90E850F1B85101C85111D8502
:10122F00121EAD0BAC0A1210467402250EF50EE419
:0A123F00350DF50D05130513808928
:011249002282
:0C1320008E088F098C0A8D0B8A0C8B0D37
:10132C00850E31850F321212D9850C12850D13D30F
:10133C00E513950FE512950E502C850814850915AB
:10134C00D3E515950BE514950A5011AF11AE10129B
:10135C0014420515E51570E8051480E40513E51332
:06136C0070CD051280C9DE
:011372002258
:100BB40075083275310175328FE4FBFA7DEFFCFF65
:100BC400FE1212D9E4F50BF50CE4F509F50AC3E5B8
:100BD4000A95087480F865099850117F007EF81210
:100BE4001442050AE50A70E6050980E2050CE50CE5
:100BF4007002050BC394F0E50B6480948040CAE452
:100C0400F50BF50C75090085080AE50875F002A4D2
:100C1400FFC3E50A9FE5F06480F8E5096480985015
:100C2400117FE07E07121442050AE50A70DC05090B
:100C340080D8050CE50C7002050BC394F0E50B6439
:100C440080948040BFE4F50BF50CE50875F002A430
:100C540085F009F50AE50875F003A4FFC3E50A9FCA
:100C6400E5F06480F8E50964809850117F1F7E00E8
:100C7400121442050AE50A70DC050980D8050CE562
:100C84000C7002050BC394F0E50B6480948040BAA9
:100C9400E4F50BF50CE50875F003A485F009F50AF5
:100CA400E50875F004A4FFC3E50A9FE5F06480F845
:100CB400E50964809850117FE07EFF121442050A12
:100CC400E50A70DC050980D8050CE50C7002050BFB
:100CD400C394F0E50B6480948040BAE4F50BF50C02
:100CE400E50875F004A485F009F50AE50875F00532
:100CF400A4FFC3E50A9FE5F06480F8E509648098E1
:100D040050117F1F7EF8121442050AE50A70DC05B3
:100D14000980D8050CE50C7002050BC394F0E50BB3
:100D24006480948040BAE4F50BF50CE50875F00591
:100D3400A485F009F50AE50875F006A4FFC3E50AE1
:100D44009FE5F06480F8E50964809850117FFF7E88
:100D540007121442050AE50A70DC050980D8050C5F
:100D6400E50C7002050BC394F0E50B64809480409D
:100D7400BAE4F50BF50CE50875F006A485F009F561
:100D84000AE50875F007A4FFC3E50A9FE5F064804F
:100D9400F8E509648098501174FFFFFE12144205AF
:100DA4000AE50A70DC050980D8050CE50C7002051B
:100DB4000BC394F0E50B6480948040BAE4F50BF522
:100DC4000CE50875F007A485F009F50AE50875F047
:100DD40008A4FFC3E50A9FE5F06480F8E509648090
:100DE400985010E4FFFE121442050AE50A70DD056E
:100DF4000980D9050CE50C7002050BC394F0E50BD2
:060E04006480948040BBF5
:010E0A0022C5
:04144200AD07AC0640
:0C144600AF048D2B121435AF2B021435AF
:0D146100C2A2C2A48F80C2A5D2A5D2A22231
:07142E00121461FF121435D6
:0D143500C2A2D2A48F80C2A5D2A5D2A2224D
:08147A00121461AF05021461B8
:08148200121435AF0502143508
:10140E00E4FDFCC3ED9FEC9E5015E4FBFA0BBB0014
:0F141E00010ABA01F8BB04F50DBD00010C80E412
:01142D00229C
:100F2900D2A17F017E0012140EC2A17F0A12140EF3
:100F3900D2A17F3212140E7F111214617F64121430
:100F49000E7FD1121461E4FF1214357F711214352A
:100F59007F191214357FD01214617F071214357F5F
:100F6900011214357F081214357F361214617F4837
:100F79001214357F3A1214617F051214357FC1129C
:100F890014617F101214351214357F0212143512B0
:100F990014357FC0121461FF1214357F35121435D0
:100FA9001214310F1214350F1214357FC512146142
:100FB9007F041214357FD21214617F011214357F18
:100FC900441214357FC81214617F041214357F67E7
:100FD9001214357F351214357F041214357F081227
:100FE90014357F061214357F241214357F0112142B
:100FF900357F371214357F401214357F03121435AB
:101009007F101214357F081214357F80121435FFB2
:101019001214357F2A12142E1214357FF01214354A
:101029007F2B12142E0F1214357F901214357F293D
:0D1039001214617F2C1214617F6402140EEA
:1012C600FDE43EFCAB82AA83E582240FF532E435C9
:0312D60083F5316C
:1012D9008E2B8F2C8D828C837D2A7C00E4FFFE125D
:1012E900147AE52BFFAD2CFC121482E583FFAD8245
:1012F900FC1214827D2B7C00E4FF12147AEAFFAD04
:1013090003FC121482E531FFAD32FC1214827D2CEC
:071319007C00E4FF02147ADE
:0300000002146E79
:0C146E00787FE4F6D8FD758132020E0B89
:10137300BB010689828A83E0225002E722BBFE0278
:09138300E32289828A83E49322AB
:10138C00BB010CE58229F582E5833AF583E0225016
:10139C0006E92582F8E622BBFE06E92582F8E22260
:0D13AC00E58229F582E5833AF583E493227A
:0C13B900A42582F582E5F03583F583223F
:00000001FF
