:04043C008E168F1772
:1004400075220175238FE4FBFA7DEFFCFFFE120499
:1004500085E4F518F519E4F51AF51BAF17AE161279
:100460000576051BE51B7002051AC394F0E51A9486
:100470000040E80519E51970020518C39490E518C5
:04048000940140D2D1
:010484002255
:04057600AD07AC061B
:0C057A00AF048D1C120543AF1C020543AA
:0D058600C2A2C2A48F80C2A5D2A5D2A2221B
:07053C00120586FF120543C2
:0D054300C2A2D2A48F80C2A5D2A5D2A2224E
:08059F00120586AF0502058676
:0805A700120543AF05020543F4
:1004CC00E4FDFCC3ED9FEC9E5015E4FBFA0BBB0066
:0F04DC00010ABA01F8BB04F50DBD00010C80E464
:0104EB0022EE
:10012100D2A17F017E001204CCC2A17F0A1204CCAD
:10013100D2A17F321204CC7F111205867F64120492
:10014100CC7FD1120586E4FF1205437F711205436E
:100151007F191205437FD01205867F071205437F61
:10016100011205437F081205437F361205867F4839
:100171001205437F3A1205867F051205437FC1129E
:1001810005867F101205431205437F0212054312B3
:1001910005437FC0120586FF1205437F35120543D3
:1001A10012053F0F1205430F1205437FC512058645
:1001B1007F041205437FD21205867F011205437F1A
:1001C100441205437FC81205867F041205437F67E9
:1001D1001205437F351205437F041205437F081240
:1001E10005437F061205437F241205437F01120553
:1001F100437F371205437F401205437F03120543B6
:100201007F101205437F081205437F80120543FFCB
:100211001205437F2A12053C1205437FF012054364
:100221007F2B12053C0F1205437F901205437F2956
:0D0231001205867F2C1205867F640204CC26
:100485008E1C8F1D8D828C837D2A7C00E4FFFE12DD
:10049500059FE51CFFAD1DFC1205A7E583FFAD8299
:1004A500FC1205A77D2B7C00E4FF12059FEAFFAD3A
:1004B50003FC1205A7E522FFAD23FC1205A77D2C41
:0704C5007C00E4FF02059F2B
:10055000C2A2D2A48F80C2A5D2A58D80C2A5D2A5E9
:03056000D2A22202
:07050C007FFF1205137FFFC2
:100513007E08C291EF339292EF25E0FFD291DEF293
:02052300D29272
:0105250022B3
:100563007E08C291D291EF25E0FF3090034307014B
:02057300DEF0B8
:010575002263
:10052600E4FC120563AD07ED6009ED640160040C9F
:05053600BC09EFAF0558
:01053B00229D
:1004EC00EF4440FF120513AF20120513AF21120584
:1004FC0013AF22120513AF23120513AF24020513F9
:1003D500E4F516F517F518F5197D01D293FC7FFFA5
:1003E5001205130CBC0AF7C293E4F523F522F52197
:1003F500F520752495FF1204EC120526AD07ED6472
:100405000160037F0022BD0124D2937FFF120513F3
:10041500C2937523007522C07521FF7520007524D0
:10042500FF7F011204EC120526AD0780D9D2937F18
:06043500FF1205137F0118
:01043B00229E
:0E023E008B258A2689278F2B8E2A8D298C28C6
:10024C00C2938F238E228D218C207524FF7F181250
:10025C0004EC120526EF706E12050C7FFF120513CD
:10026C007FFE120513E4FDFCC3ED952DEC952C508F
:10027C001CAB250527E527AA267002052614F912C2
:10028C0002D5FF1205130DBD00010C80DBC3EC94ED
:10029C0002500CE4FF1205130DBD00010C80EE1290
:1002AC00050C120563AD07120563EF60FA53050FD9
:1002BC00D2937FFF120513BD0B037F0022BD0503F4
:0802CC007F01227F00227F0068
:0102D4002207
:0E0360008B168A1789188F1C8E1B8D1A8C190C
:10036E00C2938F238E228D218C207524FF7F111234
:10037E0004EC120526EF704C120563BFFEFAE4FD85
:10038E00FCC3ED951EEC951D501C120563AB1605B6
:10039E0018E518AA177002051714F9EF1202EE0DE0
:1003AE00BD00010C80DBC3EC9402500A1205630DF4
:1003BE00BD00010C80F0120563120563D293120585
:0603CE00637F01227F00A5
:0103D4002206
:10000300E4F515F514751304F5121201211203D545
:100013007F007EFF12043CE4F50FF50EF50DF50CA1
:10002300E47F777E01FDFCAB0FAA0EA90DA80CC3DC
:1000330012034F40030200F4E4FF7E02FDFCA80C10
:10004300120300EF2515FFEE3514FEED3513FDEC1D
:100053003512FC751D02751E007B017A00790012B2
:100063000360E4F510F511850A22850B23AB0BAA77
:100073000AAD09AC08AF09AE08120485E51125E005
:10008300FDE51033FC74012DF58274003CF583E02B
:10009300FF74002DF58274003CF583E0FD120550DA
:1000A3000509E5097002050864F04508701C050B95
:1000B300E50B7002050AE4F508F509E50BB4900AAF
:1000C300E50AB40105E4F50AF50B0511E511700223
:1000D3000510C3E5109401408EE50F2401F50FE4EC
:1000E300350EF50EE4350DF50DE4350CF50C020077
:1000F30023E4FF7E02FDFCAB0FAA0EA90DA80C1290
:100103000300E5152FF515E5143EF514E5133DF54C
:0E01130013E5123CF51220B20302001A80F828
:0300000002059363
:0C059300787FE4F6D8FD75812D0200038E
:1002D500BB010689828A83E0225002E722BBFE0227
:0902E500E32289828A83E493225A
:1002EE00BB010689828A83F0225002F722BBFE01EF
:0202FE00F322E9
:10030000E88FF0A4CC8BF0A42CFCE98EF0A42CFC9C
:100310008AF0EDA42CFCEA8EF0A4CDA8F08BF0A41A
:100320002DCC3825F0FDE98FF0A42CCD35F0FCEB79
:100330008EF0A4FEA9F0EB8FF0A4CFC5F02ECD393E
:0F034000FEE43CFCEAA42DCE35F0FDE43CFC22AB
:10034F00EB9FF5F0EA9E42F0E99D42F0E89C45F004
:01035F00227B
:00000001FF
