:10164F0025642025642025642025640A00000500F8
:10165F000700090003000200060004000000030059
:10166F000100050007000900030002000600040046
:05167F00000003000162
:100BC5007F007E1F12150612161A75440075450B17
:100BD50075460075471F7B137A007D097C007F01F0
:100BE5007E0012149A7544007545137546007547C5
:100BF5001F7B0B7A007D017C007F097E0012149A11
:100C05002095FD121328AC06AD07EC1203138F31A6
:100C15008E308D2F8C2E1213E1AC06AD07EC12032E
:100C2500138F358E348D338C3275440075450B75B5
:100C3500461F7547007B137A007D097C007F017E86
:100C45000012149A75440075451375461F754700C3
:100C55007B0B7A007D017C007F097E0012149A309F
:100C650095FD75440175458775460075471F7BEFF2
:100C75007A007D857C017FDD7E0012149A75440122
:100C850075458F75460075471F7BE77A007D7D7C2E
:100C9500017FE57E0012149A2095FD121328AC06FB
:100CA500AD07EC1203138F398E388D378C3612133E
:100CB500E1AC06AD07EC1203138F3D8E3C8D3B8CEA
:100CC5003A75440175458775461F7547007BEF7A70
:100CD500007D857C017FDD7E0012149A75440175C7
:100CE500458F75461F7547007BE77A007D7D7C0142
:100CF5007FE57E0012149A7FC87E001216D7D2991E
:100D0500AF31AE30AD2FAC2E12034C8E418F42AFBA
:100D150039AE38AD37AC3612034C8E438F44AF3500
:100D2500AE34AD33AC3212034C8E458F46AF3DAE7B
:100D35003CAD3BAC3A12034C8E478F487BFF7A168D
:100D4500794F1207B82095FD121328AC06AD07ECB4
:100D55001203138F298E288D278C26AB31AA30A933
:100D65002FA82E120006E4FBFA795C78431200FBEB
:100D7500C004C005C006C007AB31AA30A92FA82EF4
:100D8500AF39AE38AD37AC36120006A804A905AAAE
:100D950006AB07D007D006D005D004120204E4FB49
:100DA500FA7920784112000A12034C8E228F231201
:100DB50013E1AC06AD07EC1203138F2D8E2C8D2B92
:100DC5008C2AAB35AA34A933A832120006E4FBFA03
:100DD50079BE78431200FBC004C005C006C007AB4E
:100DE50035AA34A933A832AF3DAE3CAD3BAC3A127F
:100DF5000006A804A905AA06AB07D007D006D005AA
:100E0500D004120204E4FBFA7920784112000A1298
:100E1500034C8E248F257F007EF07D7F7C45AB299A
:100E2500AA28A927A8261202A160054003020D4D94
:100E3500E4FFFEFDFCAB29AA28A927A8261202A1DA
:100E45005003020D4D7F007EF07D7F7C45AB2DAAC2
:100E55002CA92BA82A1202A160054003020D4DE41E
:100E6500FFFEFDFCAB2DAA2CA92BA82A1202A1502E
:100E750003020D4DE52494005003020D4AD3E525E8
:100E85009490E52494014003020D4A7B1F7A00AD3E
:0D0E950025AC24AF23AE2212125B020D4AE1
:10125B008E3E8F3F8C408D418A428B43E53F24FF6E
:10126B00FFE53E34FFFE121690E54124FFFDE540FD
:10127B0034FFFCAB43AA42AF3FAE3E121690E53FA4
:10128B0024FFFFE53E34FFFEE54124FFFDE540343E
:10129B00FFFCAB43AA42121690AB43AA42AD41AC42
:1012AB0040AF3FAE3E121690E53F2401FFE4353EC2
:1012BB00FEAB43AA42AD41AC40121690E54124016E
:1012CB00FDE43540FCAB43AA42AF3FAE3E12169055
:1012DB00E53F2401FFE4353EFEE5412401FDE43505
:1012EB0040FCAB43AA42121690E53F24FFFFE53EBC
:1012FB0034FFFEE5412401FDE43540FCAB43AA423B
:10130B00121690E53F2401FFE4353EFEE54124FF34
:0D131B00FDE54034FFFCAB43AA42021690F2
:10161A00C291C292C2907FA01216F7C292D290C211
:10162A00907FE01216F7C292D290C2907FF0121603
:10163A00F7C292D290C2907F801216F7C292D290CD
:05164A00C290D29122C4
:10159600E4F558F559C2917FD01216F7C292D2904F
:1015A600C290A2949200A200E4334259E4FDE559A8
:1015B60025E0F559E55833F558D290C290A2949299
:1015C60000A200E43342590DBD0BE3D291AE58AFF1
:0115D60059BB
:0115D70022F1
:1015D800E4F558F559C2917F901216F7C292D2904D
:1015E800C290A2949200A200E4334259E4FDE55966
:1015F80025E0F559E55833F558D290C290A2949257
:1016080000A200E43342590DBD0BE3D291AE58AFAE
:011618005978
:0116190022AE
:1016F700C291C292C290E4FEEF339201A20192928C
:0C170700D290C290EF25E0FF0EBE08EC6F
:0117130022B3
:10132800E4F53EF53F78407C00FD7BFF7A16795C5A
:10133800FE7F1412063FE4F554F555F556F557129D
:101348001596E53F25E02440F8A60608A607053FC0
:10135800E53FC3940A40E8E53F640A7077E4FFF587
:101368003EE53F14FEE53EC39E504BE53E25E02496
:1013780042F8E6FC08E6FDE53E25E02440F8E6FAFA
:1013880008E6D39DEA9C402A8C548D55E53E25E01D
:101398002440F8E6FE08E6FFE53E25E02442F8A6EC
:1013A8000608A607E53E25E02440F8A65408A655F9
:1013B8007F01053E80ABEF70A4E5472549CFE546A0
:1013C8003548CF254BCF354AFE7C007D031206BD3C
:0813D8008E568F57AE56AF5739
:0113E00022EA
:1013E100E4F53EF53F78407C00FD7BFF7A1679708D
:1013F100FE7F1412063FE4F554F555F556F55712E4
:1014010015D8E53F25E02440F8A60608A607053FC4
:10141100E53FC3940A40E8E53F640A7077E4FFF5CD
:101421003EE53F14FEE53EC39E504BE53E25E024DC
:1014310042F8E6FC08E6FDE53E25E02440F8E6FA40
:1014410008E6D39DEA9C402A8C548D55E53E25E063
:101451002440F8E6FE08E6FFE53E25E02442F8A632
:101461000608A607E53E25E02440F8A65408A6553F
:101471007F01053E80ABEF70A4E5472549CFE546E6
:101481003548CF254BCF354AFE7C007D031206BD82
:081491008E568F57AE56AF577F
:011499002230
:10172800759850438920758DFDD28E12113E120B8B
:03173800C580FE6B
:041506008E3E8F3F47
:10150A0075740175758FE4FBFA7DEFFCFFFE121509
:10151A004FE4F540F541E4F542F543AF3FAE3E12E4
:10152A00173B0543E54370020542C394F0E5429434
:10153A000040E80541E54170020540C39490E5404A
:04154A00940140D2F6
:01154E00227A
:04173B00AD07AC0644
:0C173F00AF048D6E12171BAF6E02171B5B
:0D174B00C2A2C2A48F80C2A5D2A5D2A22244
:0717140012174BFF12171B17
:0D171B00C2A2D2A48F80C2A5D2A5D2A22264
:0817640012174BAF0502174BF1
:08176C0012171BAF0502171B49
:1016D700E4FDFCC3ED9FEC9E5015E4FBFA0BBB0049
:0F16E700010ABA01F8BB04F50DBD00010C80E447
:0116F60022D1
:10113E00D2A17F017E001216D7C2A17F0A1216D746
:10114E00D2A17F321216D77F1112174B7F6412165F
:10115E00D77FD112174BE4FF12171B7F7112171B8B
:10116E007F1912171B7FD012174B7F0712171B7F89
:10117E000112171B7F0812171B7F3612174B7F4861
:10118E0012171B7F3A12174B7F0512171B7FC112C6
:10119E00174B7F1012171B12171B7F0212171B12F1
:1011AE00171B7FC012174BFF12171B7F3512171B11
:1011BE001217170F12171B0F12171B7FC512174B83
:1011CE007F0412171B7FD212174B7F0112171B7F42
:1011DE004412171B7FC812174B7F0412171B7F6711
:1011EE0012171B7F3512171B7F0412171B7F081255
:1011FE00171B7F0612171B7F2412171B7F01121756
:10120E001B7F3712171B7F4012171B7F0312171BF2
:10121E007F1012171B7F0812171B7F8012171BFFE0
:10122E0012171B7F2A12171412171B7FF012171B8F
:10123E007F2B1217140F12171B7F9012171B7F296B
:0D124E0012174B7F2C12174B7F640216D72E
:10154F008E6E8F6F8D828C837D2A7C00E4FFFE125E
:10155F001764E56EFFAD6FFC12176CE583FFAD826C
:10156F00FC12176C7D2B7C00E4FF121764EAFFADB1
:10157F0003FC12176CE574FFAD75FC12176C7D2C14
:07158F007C00E4FF02176479
:0C168400AB51AA50AD5FAC5EAF5DAE5C38
:101690008A6C8B6D8D828C83AD07AC06AB82AA837E
:1016A00085837485827512154FAF6DAE6C02173B42
:0C0EA2008E488F498C4A8D4B8A4C8B4D3A
:100EAE00C3E54D9549F553E54C9548F552C3E54FCD
:100EBE00954BF555E54E954AF554E55525E0FFE57C
:100ECE005433FEC3EF9553F557EE9552F5568E58A3
:100EDE008F59C3E5559553FFE5549552FEEF25E026
:100EEE00F55BEE33F55AE4F55CF55DF55EF55FF511
:100EFE0060F561F562F563F564F565F566F567F520
:100F0E0068F569F56AF56BE5534552706885485C7E
:100F1E0085495DC3E54B954FE54A954E5008854A88
:100F2E005E854B5F8006854E5E854F5FE4F56AF504
:100F3E006BC3E54B954FE54A954E500DC3E54F9566
:100F4E004BFFE54E954AFE800BC3E54B954FFFE5F3
:100F5E004A954EFED3E56B9FE56A9E400302113D16
:100F6E00121684055FE55F7002055E056BE56B701A
:100F7E00C0056A80BCE55545547068854A5E854B50
:100F8E005FC3E549954DE548954C500885485C850D
:100F9E00495D8006854C5C854D5DE4F56AF56BC355
:100FAE00E549954DE548954C500DC3E54D9549FFE6
:100FBE00E54C9548FE800BC3E549954DFFE54895F8
:100FCE004CFED3E56B9FE56A9E400302113D12165F
:100FDE0084055DE55D7002055C056BE56B70C00513
:100FEE006A80BCD3E5539400E55264809480400837
:100FFE00756000756101800EE553455270028002E6
:10100E0074FFF560F561D3E5559400E55464809462
:10101E00804008756200756301800EE55545547079
:10102E0002800274FFF562F563D3E549954DE548FC
:10103E00954C400CE549954DFFE548954CFE800BCF
:10104E00C3E54D9549FFE54C9548FE8E528F53D31F
:10105E00E54B954FE54A954E400CE54B954FFFE518
:10106E004A954EFE800BC3E54F954BFFE54E954AD4
:10107E00FE8E548F55D3E5539555E5546480F8E5AF
:10108E005264809840088552648553658006855465
:10109E006485556585485C85495D854A5E854B5FEF
:1010AE00E4F56AF56BE5652401FFE43564FED3E5EE
:1010BE006B9FE56A9E5078121684E5532567F56797
:1010CE00E5523566F566E5552569F569E5543568E9
:1010DE00F568D3E5679565E5646480F8E566648038
:1010EE00984018E5679565F567E5669564F566E5DC
:1010FE0061255DF55DE560355CF55CD3E56995656B
:10110E00E5646480F8E5686480984018E569956543
:10111E00F569E5689564F568E563255FF55FE56259
:0F112E00355EF55E056BE56B7002056A0210B366
:01113D00228F
:10149A008E3E8F3F8C408D418A428B4385404E85DC
:1014AA00414F854650854751120EA285444E8545C7
:1014BA004F854650854751AB3FAA3EAD41AC40AF40
:1014CA003FAE3E120EA285444E85454F8546508555
:1014DA004751AB43AA42AD41AC40AF43AE42120EB4
:1014EA00A285444E85454F854650854751AB43AA50
:0C14FA0042AD45AC44AF3FAE3E020EA236
:100003000203B8E86480F8E933E83360110460F070
:10001300ED33EC337009E8FCE9FDEAFEEBFF220463
:1000230060DED3EB9FEA9EE99DE8C2E78CF0C2F75E
:1000330095F0400CE8CCF8E9CDF9EACEFAEBCFFB2A
:1000430012038385D0F05804700320D5B3E80470FD
:10005300075002B2D50203C292D5EC0460F7E4CC98
:10006300C0E0C398F8603B94186008400DD0E0FBF3
:1000730002039AE4FBFAC9FC8028E830E406E4C9E9
:10008300FBE4CAFCE830E305E4C9CACBFCE8540747
:100093006010F8C3E913F9EA13FAEB13FBEC13FC52
:1000A300D8F130F52FC3E49CFCEF9BFFEE9AFEEDF5
:1000B30099FDD0E0FBEF4E4D4C701222DB0302039F
:1000C300BFEC2CFCEF33FFEE33FEED33FDED30E7F9
:1000D300EB02039AEF2BFFEE3AFEED39FDD0E0FB86
:1000E30050130BBB00030203C2ED13FDEE13FEEF2F
:0800F30013FFEC13FC02039A59
:1000FB00EC4D6011E8497017ED33EC3304600DE4FF
:10010B00FCFFFEFD22E933E8330470F80203B8125A
:10011B00038358046009E4CC24815006285009025B
:10012B0003C22840030203BFC0E0EB4A7044B9800E
:10013B0006D0E0FB0203AEEF4E701CBD8008EBFF58
:10014B00EAFEE9FD80EBE98DF0A4FEE5F00201E4A7
:10015B00E9CDF9EAFEEBFFEF89F0A4FCE5F0CE89DF
:10016B00F0A42EFFE435F0CD89F0A42DFEE435F09C
:10017B008067EF4E7005BD80D780C3EF8BF0A4ACCA
:10018B00F0EE8BF0A42CFCE435F0F8EF8AF0A42C05
:10019B00E5F038FCE433CB8DF0A42CFCE5F03BF818
:1001AB00EE8AF0A42CFCE5F038F8E433CF89F0A408
:1001BB002CFCE5F038CF3400CE89F0A42FFFE5F00E
:1001CB003EFEE433C98DF0A42EFEE5F039CD8AF066
:1001DB00A42FFFE5F03EFEE43DFD33D0E0FB5007DE
:1001EB000BBB000F0203C2EC2CFCEF33FFEE33FE14
:0601FB00ED33FD02039A42
:100201000203C2EC5D046005E8590470030203B8FF
:10021100120383580460F6EC4860F2EC7004FDFEB2
:10022100FF22C860DB2481C85009C39860025006D0
:100231000203BF9850CAF582E9294B4A7005AB8287
:100241000203AE75F0007C1A7880C3EF9BEE9AED45
:1002510099400DC3EF9BFFEE9AFEED99FDE842F048
:10026100DC23ACF0D0E0FFD0E0FED0E0FDAB82209B
:10027100E7101BEB60BAEC2CFCEF33FFEE33FEED25
:1002810033FD02039AE803F830E705C0F075F0008A
:10029100EF2FFFEE33FEED33FD40B830E7C280AA09
:1002A10074F8CC6480CCC86480C8F582046043C310
:1002B100EB9FF5F0EA9E42F0E99D42F0E89C45F0A3
:1002C10060305018E5825FFFE582F42B5582FB50C8
:1002D100210ABA001D09B90019088016E5825BFBE5
:1002E100E582F42F5582FF50090EBE00050DBD00B9
:1002F100010CC3EB9FF5F0EA9E42F0E99D42F0E864
:0D0301009C45F06007CC4820E701B3EC22DA
:10030E0075F020800E75F010800575F0087D007E6A
:10031E00007F003392D530D503120712EC33401014
:10032E00EF33FFEE33FEED33FDEC33FCD5F0ED2273
:0E033E00E5F0247EA2D513CC92E7CDCEFF22AF
:10034C00EDD2E7CD33EC3392D524814006E4FFFEA9
:10035C00FDFC22FCE4CFCECDCC24E0501174FF8008
:10036C00EDC3CC13CCCD13CDCE13CECF13CF0470A5
:07037C00F030D5DE0207128C
:10075600E5552441F8E6055522783E3007027841F2
:10076600E475F0011207200206652000EB7F2ED209
:10077600008018EF540F2490D43440D4FF30040B7B
:10078600EF24BFB41A0050032461FFE5566002153A
:10079600560559E5597002055830070D783EE4753F
:1007A600F001120720EF0206AB0216B07403D2075F
:1007B6008003E4C207F5558B3E8A3F8940E4F5562F
:1007C600F558F559E55660077F2012079180F575B3
:1007D60057FFC201C200C202C203C205C206C20856
:1007E60012075FFF700D3007057F001207A2AF5991
:1007F600AE5822B4255FC2D5C20412075FFF24D0CB
:10080600B40A00501A75F00A785630D50508B6FFB6
:100816000106C6A426F620D5047002D20380D92488
:10082600CFB41A00EF5004C2E5D204020A8FD201F7
:1008360080C6D20080C0D20280BCD2D580BAD20592
:1008460080B47F201207912002077401B55600403C
:10085600F1120756FF1207910207CAD208D2068084
:1008660095120756FB120756FA120756F94A4B70AD
:100876000679867A0B7BFF20022EE556602A7E00DB
:100886008E8275830012067E60060EEE655770F046
:10089600C2D5EBC0E0EAC0E0E9C0E0EE120AEFD054
:1008A600E0F9D0E0FAD0E0FB120665FF60AAEBC0E3
:1008B600E0EAC0E0E9C0E0120791D0E02401F9D0F7
:1008C600E03400FAD0E0FBE5570460DCD557D98068
:1008D60087D20280A2120AD260F7E557700104128D
:1008E60003CDA957600DE557600914F557120B792A
:1008F600EF60F3EA30E702F404C3995077EAF4258F
:10090600570430E701E404F557800D120AD260C19E
:10091600EA055725571203CDEA7854F630E701E485
:10092600255704D5570420050114120AEFE4C0E048
:10093600120B797854E6601320E70714F61207794C
:10094600802204F6D0E014C0E07F00120779E55754
:1009560060071207701557800B300503120770D019
:10096600E00207CAD0E00480C5120AD260A0E557AB
:10097600041203CD7854EAF6E55720050260010417
:050986002404120AEF39
:10098B0074FF04C0E0120B79120779E557200502BA
:10099B006003120770D0E0B557E87F4512078378E4
:1009AB0054E67F2B30E7047F2DF404C0E01207914F
:1009BB00D0E075F00A84C0F012077AD0E012077A03
:1009CB000207CA791080027908C206C2088008D2D1
:1009DB00D5790A8004790AC2D5E557047002F55718
:1009EB00E4FAFDFEFF120756FC7B082001131207E9
:1009FB0056FD7B1030000A120756FE120756FF7B7E
:100A0B0020EC3382D592D55013C3E43000069FFF00
:100A1B00E49EFEE42001039DFDE49CFCE4CBF8C2C4
:100A2B0001EC700CCFCECDCCE824F8F870F3801726
:100A3B00C3EF33FFEE33FEED33FDEC33FCEB33FB57
:100A4B00994002FB0FD8E9EB300105F8D0E0C44820
:100A5B00B201C0E00AEC4D4E4F78207B0070C2EA29
:100A6B00B5570040BCC0E0120AF1D0F0D0E0200135
:100A7B0004C4C0E0C4B201C0F012077AD0F0D5F0C4
:100A8B00EB0207CA12073008675309CE5808384CD7
:100A9B0008344209D24F09DA4409DA49084D4309AF
:100AAB00E055091146096F4508DB470BA650083C7A
:100ABB002D08402E08632B0844230861200B8F2A36
:100ACB0007FC480000085BE557B4FF037557061297
:100ADB000756FC120756FD120756FE120756FF78F3
:100AEB004D0203FC790AA2D5200314300509B91075
:100AFB00020404B9080104A2D52006025001042007
:100B0B0002689202B556005034C0E07F20300319C2
:100B1B007F30A20272067205500F120B48C202C23E
:100B2B0006C205C2087F30800F300503E9C0E01212
:100B3B000791300503D0E0F9D0E0B556CC3005175E
:100B4B007F30B9100C1207917F583004077F7880E3
:100B5B0003B908031207913002057F2D0207917F1D
:100B6B00202008F87F2B2006F322920280CF7F00F3
:100B7B00B407005005244DF8E6FF22286E756C6C07
:100B8B002900D2011207563001F8C201785630D530
:100B9B000108F60207FC2D5043495812075624034F
:100BAB00B405004001E4900BA193120782743A1232
:0A0BBB000782D2037556040209CE2A
:10038300E9D2E7C933E833F892D5EDD2E7CD33ECC0
:0703930033FC5002B2D52239
:10039A00EC30E7100FBF000C0EBE00080DBD0004C4
:1003AA000BEB6014A2D5EB13FCED92E7FD2274FF70
:1003BA00FCFDFEFF22E480F8A2D574FF13FC7D80C9
:0303CA00E480EFDD
:1003CD00F920E72824F950037907E4F42402FB18F7
:1003DD00DBFDE624FB5014E9600DE4F618E604F6A7
:0F03ED00B40A08E4F6D9F57401F60A22C2D52243
:1003FC00ED33EC3392D5FA602AB4FF33EDC2E77BD0
:10040C00FF60067A047921E4227A04792A20D50443
:10041C007A047925224E614E002B494E46002D4917
:10042C004E4600E47A08F608DAFC7B00740722E8F2
:10043C00C0E0ECC0E0EDC0E0EEC0E0EFC0E0EA757B
:10044C00F010A4CAABF075F04DA42BFBE435F0FC16
:10045C00EA2410FAEB34C5FBEC34D9FCEDC2E7FF0F
:10046C0075F056A4F42411C5F0F434C58FF0A42A09
:10047C00E5F03BE43CF620E71412052FD0E0FFD06A
:10048C00E0FED0E0FDD0E0FC1202048014F4041273
:10049C00052FD0E0FFD0E0FED0E0FDD0E0FC120054
:1004AC00FBD0E0F8E6FAEDD2E7CD33EC332482FB57
:1004BC00E4C3CF33CFCE33CECD33CD33DBF37B0799
:1004CC0075F00A846004F6081B0AE5F0F6088FF054
:1004DC00740AA4FFACF08EF0740AA42CFEACF0509D
:1004EC00010C8DF0740AA42CFDE435F0F608DBDE6B
:0304FC0074072260
:1004FF003F8000004120000042C80000447A000005
:10050F00461C400047C35000497424004B18968086
:10051F004CBEBC205A0E1BCA6753C21C749DC5AE7D
:10052F00FB60065407601C232312055DEB543860F3
:10053F00091205491205581200FBECF8EDF9EEFA15
:10054F00EFCB22EB12055880F1543803241C900492
:10055F00FFFE93FC0EEE93FD0EEE930ECE93FF2255
:030000000217588C
:0C175800787FE4F6D8FD75817502172833
:10056F00E709F608DFFA8046E709F208DFFA803E6E
:10057F0088828C83E709F0A3DFFA8032E309F6085B
:10058F00DFFA8078E309F208DFFA807088828C83C3
:10059F00E309F0A3DFFA806489828A83E0A3F60877
:1005AF00DFFA805889828A83E0A3F208DFFA804C51
:1005BF0080D280FA80C680D4806980F28033801028
:1005CF0080A680EA809A80A880DA80E280CA803391
:1005DF0089828A83ECFAE493A3C8C582C8CCC58309
:1005EF00CCF0A3C8C582C8CCC583CCDFE9DEE780D9
:1005FF000D89828A83E493A3F608DFF9ECFAA9F058
:10060F00EDFB2289828A83ECFAE0A3C8C582C8CCAD
:10061F00C583CCF0A3C8C582C8CCC583CCDFEADEC6
:10062F00E880DB89828A83E493A3F208DFF980CC28
:10063F0088F0EF60010E4E60C388F0ED2402B40421
:10064F000050B9F582EB2402B4040050AF232345C8
:06065F0082239005BF7329
:10066500BB010689828A83E0225002E722BBFE0293
:09067500E32289828A83E49322C6
:10067E00BB010CE58229F582E5833AF583E0225031
:10068E0006E92582F8E622BBFE06E92582F8E2227B
:0D069E00E58229F582E5833AF583E4932295
:1006AB00BB010689828A83F0225002F722BBFE012E
:0206BB00F32228
:1006BD00BC000BBE0029EF8DF084FFADF022E4CC21
:1006CD00F875F008EF2FFFEE33FEEC33FCEE9DECEA
:1006DD00984005FCEE9DFE0FD5F0E9E4CEFD22ED30
:1006ED00F8F5F0EE8420D21CFEADF075F008EF2F7A
:1006FD00FFED33FD4007985006D5F0F222C398FD6B
:05070D000FD5F0EA2207
:0E071200C3E49FFFE49EFEE49DFDE49CFC22F8
:10072000FAE6FB0808E6F925F0F618E6CA3AF622DA
:10073000D083D082F8E4937012740193700DA3A358
:1007400093F8740193F5828883E47374029368606C
:06075000EFA3A3A380DF6C
:1016B000EFB40A07740D1216BB740A309811A8997A
:1016C000B8130CC2983098FDA899C298B811F6309A
:0716D00099FDC299F5992272
:00000001FF
