:04043E008E168F1770
:1004420075220175238FE4FBFA7DEFFCFFFE120497
:1004520087E4F518F519E4F51AF51BAF17AE161275
:100462000578051BE51B7002051AC394F0E51A9482
:100472000040E80519E51970020518C39490E518C3
:04048200940140D2CF
:010486002253
:04057800AD07AC0619
:0C057C00AF048D1C120545AF1C020545A4
:0D058800C2A2C2A48F80C2A5D2A5D2A22219
:07053E00120588FF120545BC
:0D054500C2A2D2A48F80C2A5D2A5D2A2224C
:0805A100120588AF0502058870
:0805A900120545AF05020545EE
:1004CE00E4FDFCC3ED9FEC9E5015E4FBFA0BBB0064
:0F04DE00010ABA01F8BB04F50DBD00010C80E462
:0104ED0022EC
:10012300D2A17F017E001204CEC2A17F0A1204CEA7
:10013300D2A17F321204CE7F111205887F6412048C
:10014300CE7FD1120588E4FF1205457F7112054564
:100153007F191205457FD01205887F071205457F59
:10016300011205457F081205457F361205887F4831
:100173001205457F3A1205887F051205457FC11296
:1001830005887F101205451205457F0212054512A9
:1001930005457FC0120588FF1205457F35120545C9
:1001A3001205410F1205450F1205457FC51205883B
:1001B3007F041205457FD21205887F011205457F12
:1001C300441205457FC81205887F041205457F67E1
:1001D3001205457F351205457F041205457F081238
:1001E30005457F061205457F241205457F0112054B
:1001F300457F371205457F401205457F03120545AC
:100203007F101205457F081205457F80120545FFC3
:100213001205457F2A12053E1205457FF01205455A
:100223007F2B12053E0F1205457F901205457F294E
:0D0233001205887F2C1205887F640204CE1E
:100487008E1C8F1D8D828C837D2A7C00E4FFFE12DB
:1004970005A1E51CFFAD1DFC1205A9E583FFAD8293
:1004A700FC1205A97D2B7C00E4FF1205A1EAFFAD34
:1004B70003FC1205A9E522FFAD23FC1205A97D2C3B
:0704C7007C00E4FF0205A127
:10055200C2A2D2A48F80C2A5D2A58D80C2A5D2A5E7
:03056200D2A22200
:07050E007FFF1205157FFFBE
:100515007E08C291EF339292EF25E0FFD291DEF291
:02052500D29270
:0105270022B1
:100565007E08C291D291EF25E0FF30900343070149
:02057500DEF0B6
:010577002261
:10052800E4FC120565AD07ED6009ED640160040C9B
:05053800BC09EFAF0556
:01053D00229B
:1004EE00EF4440FF120515AF20120515AF2112057E
:1004FE0015AF22120515AF23120515AF24020515EF
:1003D700E4F516F517F518F5197D01D293FC7FFFA3
:1003E7001205150CBC0AF7C293E4F523F522F52193
:1003F700F520752495FF1204EE120528AD07ED646C
:100407000160037F0022BD0124D2937FFF120515EF
:10041700C2937523007522C07521FF7520007524CE
:10042700FF7F011204EE120528AD0780D9D2937F12
:06043700FF1205157F0114
:01043D00229C
:0E0240008B258A2689278F2B8E2A8D298C28C4
:10024E00C2938F238E228D218C207524FF7F18124E
:10025E0004EE120528EF706E12050E7FFF120515C3
:10026E007FFE120515E4FDFCC3ED952DEC952C508B
:10027E001CAB250527E527AA267002052614F912C0
:10028E0002D7FF1205150DBD00010C80DBC3EC94E7
:10029E0002500CE4FF1205150DBD00010C80EE128C
:1002AE00050E120565AD07120565EF60FA53050FD1
:1002BE00D2937FFF120515BD0B037F0022BD0503F0
:0802CE007F01227F00227F0066
:0102D6002205
:0E0362008B168A1789188F1C8E1B8D1A8C190A
:10037000C2938F238E228D218C207524FF7F111232
:1003800004EE120528EF704C120565BFFEFAE4FD7D
:10039000FCC3ED951EEC951D501C120565AB1605B2
:1003A00018E518AA177002051714F9EF1202F00DDC
:1003B000BD00010C80DBC3EC9402500A1205650DF0
:1003C000BD00010C80F0120565120565D29312057F
:0603D000657F01227F00A1
:0103D6002204
:10000300751500751402751305751200120123127C
:1000130003D77F007EFF12043EE4F50FF50EF50DC6
:10002300F50CE47F777E01FDFCAB0FAA0EA90DA8AA
:100033000CC312035140030200F6E4FF7E02FDFCF1
:10004300A80C120302EF2515FFEE3514FEED351350
:10005300FDEC3512FC751D02751E007B017A0079DB
:1000630000120362E4F510F511850A22850B23AB18
:100073000BAA0AAD09AC08AF09AE08120487E51153
:1000830025E0FDE51033FC74012DF58274003CF589
:1000930083E0FF74002DF58274003CF583E0FD12CC
:1000A30005520509E5097002050864F04508701C4E
:1000B300050BE50B7002050AE4F508F509E50BB439
:1000C300900AE50AB40105E4F50AF50B0511E511FB
:1000D30070020510C3E5109401408EE50F2401F56D
:1000E3000FE4350EF50EE4350DF50DE4350CF50C86
:1000F300020025E4FF7E02FDFCAB0FAA0EA90DA8AA
:100103000C120302E5152FF515E5143EF514E5135E
:100113003DF513E5123CF51220B20302001C80F8F2
:0300000002059561
:0C059500787FE4F6D8FD75812D0200038C
:1002D700BB010689828A83E0225002E722BBFE0225
:0902E700E32289828A83E4932258
:1002F000BB010689828A83F0225002F722BBFE01ED
:02030000F322E6
:10030200E88FF0A4CC8BF0A42CFCE98EF0A42CFC9A
:100312008AF0EDA42CFCEA8EF0A4CDA8F08BF0A418
:100322002DCC3825F0FDE98FF0A42CCD35F0FCEB77
:100332008EF0A4FEA9F0EB8FF0A4CFC5F02ECD393C
:0F034200FEE43CFCEAA42DCE35F0FDE43CFC22A9
:10035100EB9FF5F0EA9E42F0E99D42F0E89C45F002
:010361002279
:00000001FF
